{
	"contracts/DelegateCall/basic-proxy.sol": {
		"Logic": {
			"abi": [
				{
					"inputs": [],
					"name": "count",
					"outputs": [
						{
							"internalType": "uint256",
							"name": "",
							"type": "uint256"
						}
					],
					"stateMutability": "view",
					"type": "function"
				},
				{
					"inputs": [],
					"name": "dec",
					"outputs": [],
					"stateMutability": "nonpayable",
					"type": "function"
				},
				{
					"inputs": [],
					"name": "inc",
					"outputs": [],
					"stateMutability": "nonpayable",
					"type": "function"
				},
				{
					"inputs": [],
					"name": "placehoder",
					"outputs": [
						{
							"internalType": "address",
							"name": "",
							"type": "address"
						}
					],
					"stateMutability": "view",
					"type": "function"
				}
			],
			"devdoc": {
				"kind": "dev",
				"methods": {},
				"version": 1
			},
			"evm": {
				"assembly": "    /* \"contracts/DelegateCall/basic-proxy.sol\":88:356  contract Logic{... */\n  mstore(0x40, 0x80)\n  callvalue\n  dup1\n  iszero\n  tag_1\n  jumpi\n  0x00\n  dup1\n  revert\ntag_1:\n  pop\n  dataSize(sub_0)\n  dup1\n  dataOffset(sub_0)\n  0x00\n  codecopy\n  0x00\n  return\nstop\n\nsub_0: assembly {\n        /* \"contracts/DelegateCall/basic-proxy.sol\":88:356  contract Logic{... */\n      mstore(0x40, 0x80)\n      callvalue\n      dup1\n      iszero\n      tag_1\n      jumpi\n      0x00\n      dup1\n      revert\n    tag_1:\n      pop\n      jumpi(tag_2, lt(calldatasize, 0x04))\n      shr(0xe0, calldataload(0x00))\n      dup1\n      0x06661abd\n      eq\n      tag_3\n      jumpi\n      dup1\n      0x1895e698\n      eq\n      tag_4\n      jumpi\n      dup1\n      0x371303c0\n      eq\n      tag_5\n      jumpi\n      dup1\n      0xb3bcfa82\n      eq\n      tag_6\n      jumpi\n    tag_2:\n      0x00\n      dup1\n      revert\n        /* \"contracts/DelegateCall/basic-proxy.sol\":139:156  uint public count */\n    tag_3:\n      tag_7\n      tag_8\n      jump\t// in\n    tag_7:\n      mload(0x40)\n      tag_9\n      swap2\n      swap1\n      tag_10\n      jump\t// in\n    tag_9:\n      mload(0x40)\n      dup1\n      swap2\n      sub\n      swap1\n      return\n        /* \"contracts/DelegateCall/basic-proxy.sol\":108:133  address public placehoder */\n    tag_4:\n      tag_11\n      tag_12\n      jump\t// in\n    tag_11:\n      mload(0x40)\n      tag_13\n      swap2\n      swap1\n      tag_14\n      jump\t// in\n    tag_13:\n      mload(0x40)\n      dup1\n      swap2\n      sub\n      swap1\n      return\n        /* \"contracts/DelegateCall/basic-proxy.sol\":163:214  function inc() external {... */\n    tag_5:\n      tag_15\n      tag_16\n      jump\t// in\n    tag_15:\n      stop\n        /* \"contracts/DelegateCall/basic-proxy.sol\":303:354  function dec() external {... */\n    tag_6:\n      tag_17\n      tag_18\n      jump\t// in\n    tag_17:\n      stop\n        /* \"contracts/DelegateCall/basic-proxy.sol\":139:156  uint public count */\n    tag_8:\n      sload(0x01)\n      dup2\n      jump\t// out\n        /* \"contracts/DelegateCall/basic-proxy.sol\":108:133  address public placehoder */\n    tag_12:\n      0x00\n      dup1\n      sload\n      swap1\n      0x0100\n      exp\n      swap1\n      div\n      0xffffffffffffffffffffffffffffffffffffffff\n      and\n      dup2\n      jump\t// out\n        /* \"contracts/DelegateCall/basic-proxy.sol\":163:214  function inc() external {... */\n    tag_16:\n        /* \"contracts/DelegateCall/basic-proxy.sol\":206:207  1 */\n      0x01\n        /* \"contracts/DelegateCall/basic-proxy.sol\":197:202  count */\n      dup1\n      0x00\n        /* \"contracts/DelegateCall/basic-proxy.sol\":197:207  count += 1 */\n      dup3\n      dup3\n      sload\n      tag_20\n      swap2\n      swap1\n      tag_21\n      jump\t// in\n    tag_20:\n      swap3\n      pop\n      pop\n      dup2\n      swap1\n      sstore\n      pop\n        /* \"contracts/DelegateCall/basic-proxy.sol\":163:214  function inc() external {... */\n      jump\t// out\n        /* \"contracts/DelegateCall/basic-proxy.sol\":303:354  function dec() external {... */\n    tag_18:\n        /* \"contracts/DelegateCall/basic-proxy.sol\":346:347  1 */\n      0x01\n        /* \"contracts/DelegateCall/basic-proxy.sol\":337:342  count */\n      dup1\n      0x00\n        /* \"contracts/DelegateCall/basic-proxy.sol\":337:347  count -= 1 */\n      dup3\n      dup3\n      sload\n      tag_23\n      swap2\n      swap1\n      tag_24\n      jump\t// in\n    tag_23:\n      swap3\n      pop\n      pop\n      dup2\n      swap1\n      sstore\n      pop\n        /* \"contracts/DelegateCall/basic-proxy.sol\":303:354  function dec() external {... */\n      jump\t// out\n        /* \"#utility.yul\":7:84   */\n    tag_25:\n        /* \"#utility.yul\":44:51   */\n      0x00\n        /* \"#utility.yul\":73:78   */\n      dup2\n        /* \"#utility.yul\":62:78   */\n      swap1\n      pop\n        /* \"#utility.yul\":7:84   */\n      swap2\n      swap1\n      pop\n      jump\t// out\n        /* \"#utility.yul\":90:208   */\n    tag_26:\n        /* \"#utility.yul\":177:201   */\n      tag_34\n        /* \"#utility.yul\":195:200   */\n      dup2\n        /* \"#utility.yul\":177:201   */\n      tag_25\n      jump\t// in\n    tag_34:\n        /* \"#utility.yul\":172:175   */\n      dup3\n        /* \"#utility.yul\":165:202   */\n      mstore\n        /* \"#utility.yul\":90:208   */\n      pop\n      pop\n      jump\t// out\n        /* \"#utility.yul\":214:436   */\n    tag_10:\n        /* \"#utility.yul\":307:311   */\n      0x00\n        /* \"#utility.yul\":345:347   */\n      0x20\n        /* \"#utility.yul\":334:343   */\n      dup3\n        /* \"#utility.yul\":330:348   */\n      add\n        /* \"#utility.yul\":322:348   */\n      swap1\n      pop\n        /* \"#utility.yul\":358:429   */\n      tag_36\n        /* \"#utility.yul\":426:427   */\n      0x00\n        /* \"#utility.yul\":415:424   */\n      dup4\n        /* \"#utility.yul\":411:428   */\n      add\n        /* \"#utility.yul\":402:408   */\n      dup5\n        /* \"#utility.yul\":358:429   */\n      tag_26\n      jump\t// in\n    tag_36:\n        /* \"#utility.yul\":214:436   */\n      swap3\n      swap2\n      pop\n      pop\n      jump\t// out\n        /* \"#utility.yul\":442:568   */\n    tag_27:\n        /* \"#utility.yul\":479:486   */\n      0x00\n        /* \"#utility.yul\":519:561   */\n      0xffffffffffffffffffffffffffffffffffffffff\n        /* \"#utility.yul\":512:517   */\n      dup3\n        /* \"#utility.yul\":508:562   */\n      and\n        /* \"#utility.yul\":497:562   */\n      swap1\n      pop\n        /* \"#utility.yul\":442:568   */\n      swap2\n      swap1\n      pop\n      jump\t// out\n        /* \"#utility.yul\":574:670   */\n    tag_28:\n        /* \"#utility.yul\":611:618   */\n      0x00\n        /* \"#utility.yul\":640:664   */\n      tag_39\n        /* \"#utility.yul\":658:663   */\n      dup3\n        /* \"#utility.yul\":640:664   */\n      tag_27\n      jump\t// in\n    tag_39:\n        /* \"#utility.yul\":629:664   */\n      swap1\n      pop\n        /* \"#utility.yul\":574:670   */\n      swap2\n      swap1\n      pop\n      jump\t// out\n        /* \"#utility.yul\":676:794   */\n    tag_29:\n        /* \"#utility.yul\":763:787   */\n      tag_41\n        /* \"#utility.yul\":781:786   */\n      dup2\n        /* \"#utility.yul\":763:787   */\n      tag_28\n      jump\t// in\n    tag_41:\n        /* \"#utility.yul\":758:761   */\n      dup3\n        /* \"#utility.yul\":751:788   */\n      mstore\n        /* \"#utility.yul\":676:794   */\n      pop\n      pop\n      jump\t// out\n        /* \"#utility.yul\":800:1022   */\n    tag_14:\n        /* \"#utility.yul\":893:897   */\n      0x00\n        /* \"#utility.yul\":931:933   */\n      0x20\n        /* \"#utility.yul\":920:929   */\n      dup3\n        /* \"#utility.yul\":916:934   */\n      add\n        /* \"#utility.yul\":908:934   */\n      swap1\n      pop\n        /* \"#utility.yul\":944:1015   */\n      tag_43\n        /* \"#utility.yul\":1012:1013   */\n      0x00\n        /* \"#utility.yul\":1001:1010   */\n      dup4\n        /* \"#utility.yul\":997:1014   */\n      add\n        /* \"#utility.yul\":988:994   */\n      dup5\n        /* \"#utility.yul\":944:1015   */\n      tag_29\n      jump\t// in\n    tag_43:\n        /* \"#utility.yul\":800:1022   */\n      swap3\n      swap2\n      pop\n      pop\n      jump\t// out\n        /* \"#utility.yul\":1028:1208   */\n    tag_30:\n        /* \"#utility.yul\":1076:1153   */\n      0x4e487b7100000000000000000000000000000000000000000000000000000000\n        /* \"#utility.yul\":1073:1074   */\n      0x00\n        /* \"#utility.yul\":1066:1154   */\n      mstore\n        /* \"#utility.yul\":1173:1177   */\n      0x11\n        /* \"#utility.yul\":1170:1171   */\n      0x04\n        /* \"#utility.yul\":1163:1178   */\n      mstore\n        /* \"#utility.yul\":1197:1201   */\n      0x24\n        /* \"#utility.yul\":1194:1195   */\n      0x00\n        /* \"#utility.yul\":1187:1202   */\n      revert\n        /* \"#utility.yul\":1214:1405   */\n    tag_21:\n        /* \"#utility.yul\":1254:1257   */\n      0x00\n        /* \"#utility.yul\":1273:1293   */\n      tag_46\n        /* \"#utility.yul\":1291:1292   */\n      dup3\n        /* \"#utility.yul\":1273:1293   */\n      tag_25\n      jump\t// in\n    tag_46:\n        /* \"#utility.yul\":1268:1293   */\n      swap2\n      pop\n        /* \"#utility.yul\":1307:1327   */\n      tag_47\n        /* \"#utility.yul\":1325:1326   */\n      dup4\n        /* \"#utility.yul\":1307:1327   */\n      tag_25\n      jump\t// in\n    tag_47:\n        /* \"#utility.yul\":1302:1327   */\n      swap3\n      pop\n        /* \"#utility.yul\":1350:1351   */\n      dup3\n        /* \"#utility.yul\":1347:1348   */\n      dup3\n        /* \"#utility.yul\":1343:1352   */\n      add\n        /* \"#utility.yul\":1336:1352   */\n      swap1\n      pop\n        /* \"#utility.yul\":1371:1374   */\n      dup1\n        /* \"#utility.yul\":1368:1369   */\n      dup3\n        /* \"#utility.yul\":1365:1375   */\n      gt\n        /* \"#utility.yul\":1362:1398   */\n      iszero\n      tag_48\n      jumpi\n        /* \"#utility.yul\":1378:1396   */\n      tag_49\n      tag_30\n      jump\t// in\n    tag_49:\n        /* \"#utility.yul\":1362:1398   */\n    tag_48:\n        /* \"#utility.yul\":1214:1405   */\n      swap3\n      swap2\n      pop\n      pop\n      jump\t// out\n        /* \"#utility.yul\":1411:1605   */\n    tag_24:\n        /* \"#utility.yul\":1451:1455   */\n      0x00\n        /* \"#utility.yul\":1471:1491   */\n      tag_51\n        /* \"#utility.yul\":1489:1490   */\n      dup3\n        /* \"#utility.yul\":1471:1491   */\n      tag_25\n      jump\t// in\n    tag_51:\n        /* \"#utility.yul\":1466:1491   */\n      swap2\n      pop\n        /* \"#utility.yul\":1505:1525   */\n      tag_52\n        /* \"#utility.yul\":1523:1524   */\n      dup4\n        /* \"#utility.yul\":1505:1525   */\n      tag_25\n      jump\t// in\n    tag_52:\n        /* \"#utility.yul\":1500:1525   */\n      swap3\n      pop\n        /* \"#utility.yul\":1549:1550   */\n      dup3\n        /* \"#utility.yul\":1546:1547   */\n      dup3\n        /* \"#utility.yul\":1542:1551   */\n      sub\n        /* \"#utility.yul\":1534:1551   */\n      swap1\n      pop\n        /* \"#utility.yul\":1573:1574   */\n      dup2\n        /* \"#utility.yul\":1567:1571   */\n      dup2\n        /* \"#utility.yul\":1564:1575   */\n      gt\n        /* \"#utility.yul\":1561:1598   */\n      iszero\n      tag_53\n      jumpi\n        /* \"#utility.yul\":1578:1596   */\n      tag_54\n      tag_30\n      jump\t// in\n    tag_54:\n        /* \"#utility.yul\":1561:1598   */\n    tag_53:\n        /* \"#utility.yul\":1411:1605   */\n      swap3\n      swap2\n      pop\n      pop\n      jump\t// out\n\n    auxdata: 0xa26469706673582212204ccfa236fb21455dca8de0f19e4fbd3fb76bc7bfac100ff220d6c54f9a1e975a64736f6c634300081a0033\n}\n",
				"bytecode": {
					"linkReferences": {},
					"object": "6080604052348015600e575f80fd5b5061024d8061001c5f395ff3fe608060405234801561000f575f80fd5b506004361061004a575f3560e01c806306661abd1461004e5780631895e6981461006c578063371303c01461008a578063b3bcfa8214610094575b5f80fd5b61005661009e565b6040516100639190610113565b60405180910390f35b6100746100a4565b604051610081919061016b565b60405180910390f35b6100926100c7565b005b61009c6100e1565b005b60015481565b5f8054906101000a900473ffffffffffffffffffffffffffffffffffffffff1681565b6001805f8282546100d891906101b1565b92505081905550565b6001805f8282546100f291906101e4565b92505081905550565b5f819050919050565b61010d816100fb565b82525050565b5f6020820190506101265f830184610104565b92915050565b5f73ffffffffffffffffffffffffffffffffffffffff82169050919050565b5f6101558261012c565b9050919050565b6101658161014b565b82525050565b5f60208201905061017e5f83018461015c565b92915050565b7f4e487b71000000000000000000000000000000000000000000000000000000005f52601160045260245ffd5b5f6101bb826100fb565b91506101c6836100fb565b92508282019050808211156101de576101dd610184565b5b92915050565b5f6101ee826100fb565b91506101f9836100fb565b925082820390508181111561021157610210610184565b5b9291505056fea26469706673582212204ccfa236fb21455dca8de0f19e4fbd3fb76bc7bfac100ff220d6c54f9a1e975a64736f6c634300081a0033",
					"opcodes": "PUSH1 0x80 PUSH1 0x40 MSTORE CALLVALUE DUP1 ISZERO PUSH1 0xE JUMPI PUSH0 DUP1 REVERT JUMPDEST POP PUSH2 0x24D DUP1 PUSH2 0x1C PUSH0 CODECOPY PUSH0 RETURN INVALID PUSH1 0x80 PUSH1 0x40 MSTORE CALLVALUE DUP1 ISZERO PUSH2 0xF JUMPI PUSH0 DUP1 REVERT JUMPDEST POP PUSH1 0x4 CALLDATASIZE LT PUSH2 0x4A JUMPI PUSH0 CALLDATALOAD PUSH1 0xE0 SHR DUP1 PUSH4 0x6661ABD EQ PUSH2 0x4E JUMPI DUP1 PUSH4 0x1895E698 EQ PUSH2 0x6C JUMPI DUP1 PUSH4 0x371303C0 EQ PUSH2 0x8A JUMPI DUP1 PUSH4 0xB3BCFA82 EQ PUSH2 0x94 JUMPI JUMPDEST PUSH0 DUP1 REVERT JUMPDEST PUSH2 0x56 PUSH2 0x9E JUMP JUMPDEST PUSH1 0x40 MLOAD PUSH2 0x63 SWAP2 SWAP1 PUSH2 0x113 JUMP JUMPDEST PUSH1 0x40 MLOAD DUP1 SWAP2 SUB SWAP1 RETURN JUMPDEST PUSH2 0x74 PUSH2 0xA4 JUMP JUMPDEST PUSH1 0x40 MLOAD PUSH2 0x81 SWAP2 SWAP1 PUSH2 0x16B JUMP JUMPDEST PUSH1 0x40 MLOAD DUP1 SWAP2 SUB SWAP1 RETURN JUMPDEST PUSH2 0x92 PUSH2 0xC7 JUMP JUMPDEST STOP JUMPDEST PUSH2 0x9C PUSH2 0xE1 JUMP JUMPDEST STOP JUMPDEST PUSH1 0x1 SLOAD DUP2 JUMP JUMPDEST PUSH0 DUP1 SLOAD SWAP1 PUSH2 0x100 EXP SWAP1 DIV PUSH20 0xFFFFFFFFFFFFFFFFFFFFFFFFFFFFFFFFFFFFFFFF AND DUP2 JUMP JUMPDEST PUSH1 0x1 DUP1 PUSH0 DUP3 DUP3 SLOAD PUSH2 0xD8 SWAP2 SWAP1 PUSH2 0x1B1 JUMP JUMPDEST SWAP3 POP POP DUP2 SWAP1 SSTORE POP JUMP JUMPDEST PUSH1 0x1 DUP1 PUSH0 DUP3 DUP3 SLOAD PUSH2 0xF2 SWAP2 SWAP1 PUSH2 0x1E4 JUMP JUMPDEST SWAP3 POP POP DUP2 SWAP1 SSTORE POP JUMP JUMPDEST PUSH0 DUP2 SWAP1 POP SWAP2 SWAP1 POP JUMP JUMPDEST PUSH2 0x10D DUP2 PUSH2 0xFB JUMP JUMPDEST DUP3 MSTORE POP POP JUMP JUMPDEST PUSH0 PUSH1 0x20 DUP3 ADD SWAP1 POP PUSH2 0x126 PUSH0 DUP4 ADD DUP5 PUSH2 0x104 JUMP JUMPDEST SWAP3 SWAP2 POP POP JUMP JUMPDEST PUSH0 PUSH20 0xFFFFFFFFFFFFFFFFFFFFFFFFFFFFFFFFFFFFFFFF DUP3 AND SWAP1 POP SWAP2 SWAP1 POP JUMP JUMPDEST PUSH0 PUSH2 0x155 DUP3 PUSH2 0x12C JUMP JUMPDEST SWAP1 POP SWAP2 SWAP1 POP JUMP JUMPDEST PUSH2 0x165 DUP2 PUSH2 0x14B JUMP JUMPDEST DUP3 MSTORE POP POP JUMP JUMPDEST PUSH0 PUSH1 0x20 DUP3 ADD SWAP1 POP PUSH2 0x17E PUSH0 DUP4 ADD DUP5 PUSH2 0x15C JUMP JUMPDEST SWAP3 SWAP2 POP POP JUMP JUMPDEST PUSH32 0x4E487B7100000000000000000000000000000000000000000000000000000000 PUSH0 MSTORE PUSH1 0x11 PUSH1 0x4 MSTORE PUSH1 0x24 PUSH0 REVERT JUMPDEST PUSH0 PUSH2 0x1BB DUP3 PUSH2 0xFB JUMP JUMPDEST SWAP2 POP PUSH2 0x1C6 DUP4 PUSH2 0xFB JUMP JUMPDEST SWAP3 POP DUP3 DUP3 ADD SWAP1 POP DUP1 DUP3 GT ISZERO PUSH2 0x1DE JUMPI PUSH2 0x1DD PUSH2 0x184 JUMP JUMPDEST JUMPDEST SWAP3 SWAP2 POP POP JUMP JUMPDEST PUSH0 PUSH2 0x1EE DUP3 PUSH2 0xFB JUMP JUMPDEST SWAP2 POP PUSH2 0x1F9 DUP4 PUSH2 0xFB JUMP JUMPDEST SWAP3 POP DUP3 DUP3 SUB SWAP1 POP DUP2 DUP2 GT ISZERO PUSH2 0x211 JUMPI PUSH2 0x210 PUSH2 0x184 JUMP JUMPDEST JUMPDEST SWAP3 SWAP2 POP POP JUMP INVALID LOG2 PUSH5 0x6970667358 0x22 SLT KECCAK256 0x4C 0xCF LOG2 CALLDATASIZE 0xFB 0x21 GASLIMIT TSTORE 0xCA DUP14 0xE0 CALL SWAP15 0x4F 0xBD EXTCODEHASH 0xB7 PUSH12 0xC7BFAC100FF220D6C54F9A1E SWAP8 GAS PUSH5 0x736F6C6343 STOP ADDMOD BYTE STOP CALLER "
				},
				"gasEstimates": {
					"creation": {
						"codeDepositCost": "117800",
						"executionCost": "163",
						"totalCost": "117963"
					},
					"external": {
						"count()": "2403",
						"dec()": "infinite",
						"inc()": "infinite",
						"placehoder()": "2505"
					}
				},
				"methodIdentifiers": {
					"count()": "06661abd",
					"dec()": "b3bcfa82",
					"inc()": "371303c0",
					"placehoder()": "1895e698"
				}
			},
			"storageLayout": {
				"storage": [
					{
						"astId": 3,
						"contract": "contracts/DelegateCall/basic-proxy.sol:Logic",
						"label": "placehoder",
						"offset": 0,
						"slot": "0",
						"type": "t_address"
					},
					{
						"astId": 5,
						"contract": "contracts/DelegateCall/basic-proxy.sol:Logic",
						"label": "count",
						"offset": 0,
						"slot": "1",
						"type": "t_uint256"
					}
				],
				"types": {
					"t_address": {
						"encoding": "inplace",
						"label": "address",
						"numberOfBytes": "20"
					},
					"t_uint256": {
						"encoding": "inplace",
						"label": "uint256",
						"numberOfBytes": "32"
					}
				}
			},
			"userdoc": {
				"kind": "user",
				"methods": {},
				"version": 1
			}
		}
	}
}