{
	"contracts/ArrayType.sol": {
		"ArrayType": {
			"abi": [
				{
					"inputs": [],
					"name": "testDynamicStorageArray",
					"outputs": [
						{
							"internalType": "uint8[]",
							"name": "",
							"type": "uint8[]"
						},
						{
							"internalType": "uint256",
							"name": "",
							"type": "uint256"
						}
					],
					"stateMutability": "view",
					"type": "function"
				},
				{
					"inputs": [
						{
							"internalType": "uint8",
							"name": "size",
							"type": "uint8"
						}
					],
					"name": "testMemoryDynamicArray",
					"outputs": [
						{
							"internalType": "uint8[]",
							"name": "",
							"type": "uint8[]"
						}
					],
					"stateMutability": "pure",
					"type": "function"
				},
				{
					"inputs": [],
					"name": "testStaticArray",
					"outputs": [
						{
							"internalType": "uint8[3]",
							"name": "",
							"type": "uint8[3]"
						}
					],
					"stateMutability": "view",
					"type": "function"
				},
				{
					"inputs": [],
					"name": "testStorageDynamicArray",
					"outputs": [
						{
							"internalType": "uint8[]",
							"name": "",
							"type": "uint8[]"
						}
					],
					"stateMutability": "view",
					"type": "function"
				},
				{
					"inputs": [],
					"name": "testWriteDynamicStorageArray",
					"outputs": [],
					"stateMutability": "nonpayable",
					"type": "function"
				}
			],
			"devdoc": {
				"custom:dev-run-script": "./scripts/deploy_with_ethers.ts",
				"details": "Store & retrieve value in a variable",
				"kind": "dev",
				"methods": {},
				"title": "Storage",
				"version": 1
			},
			"evm": {
				"assembly": "    /* \"contracts/ArrayType.sol\":217:1091  contract ArrayType {... */\n  mstore(0x40, 0x80)\n  callvalue\n  dup1\n  iszero\n  tag_1\n  jumpi\n  0x00\n  dup1\n  revert\ntag_1:\n  pop\n  dataSize(sub_0)\n  dup1\n  dataOffset(sub_0)\n  0x00\n  codecopy\n  0x00\n  return\nstop\n\nsub_0: assembly {\n        /* \"contracts/ArrayType.sol\":217:1091  contract ArrayType {... */\n      mstore(0x40, 0x80)\n      callvalue\n      dup1\n      iszero\n      tag_1\n      jumpi\n      0x00\n      dup1\n      revert\n    tag_1:\n      pop\n      jumpi(tag_2, lt(calldatasize, 0x04))\n      shr(0xe0, calldataload(0x00))\n      dup1\n      0x122436c4\n      eq\n      tag_3\n      jumpi\n      dup1\n      0x401f98cb\n      eq\n      tag_4\n      jumpi\n      dup1\n      0xbf986150\n      eq\n      tag_5\n      jumpi\n      dup1\n      0xd12e9c9c\n      eq\n      tag_6\n      jumpi\n      dup1\n      0xe7c1a47c\n      eq\n      tag_7\n      jumpi\n    tag_2:\n      0x00\n      dup1\n      revert\n        /* \"contracts/ArrayType.sol\":951:1088  function testStorageDynamicArray()public view returns(uint8[] memory){... */\n    tag_3:\n      tag_8\n      tag_9\n      jump\t// in\n    tag_8:\n      mload(0x40)\n      tag_10\n      swap2\n      swap1\n      tag_11\n      jump\t// in\n    tag_10:\n      mload(0x40)\n      dup1\n      swap2\n      sub\n      swap1\n      return\n        /* \"contracts/ArrayType.sol\":788:945  function testMemoryDynamicArray(uint8 size)public pure returns(uint8[] memory){... */\n    tag_4:\n      tag_12\n      0x04\n      dup1\n      calldatasize\n      sub\n      dup2\n      add\n      swap1\n      tag_13\n      swap2\n      swap1\n      tag_14\n      jump\t// in\n    tag_13:\n      tag_15\n      jump\t// in\n    tag_12:\n      mload(0x40)\n      tag_16\n      swap2\n      swap1\n      tag_11\n      jump\t// in\n    tag_16:\n      mload(0x40)\n      dup1\n      swap2\n      sub\n      swap1\n      return\n        /* \"contracts/ArrayType.sol\":579:699  function testDynamicStorageArray() public view returns (uint8[] memory,uint){... */\n    tag_5:\n      tag_17\n      tag_18\n      jump\t// in\n    tag_17:\n      mload(0x40)\n      tag_19\n      swap3\n      swap2\n      swap1\n      tag_20\n      jump\t// in\n    tag_19:\n      mload(0x40)\n      dup1\n      swap2\n      sub\n      swap1\n      return\n        /* \"contracts/ArrayType.sol\":705:782  function testWriteDynamicStorageArray()public {... */\n    tag_6:\n      tag_21\n      tag_22\n      jump\t// in\n    tag_21:\n      stop\n        /* \"contracts/ArrayType.sol\":346:469  function testStaticArray() public view returns(uint8[3] memory){... */\n    tag_7:\n      tag_23\n      tag_24\n      jump\t// in\n    tag_23:\n      mload(0x40)\n      tag_25\n      swap2\n      swap1\n      tag_26\n      jump\t// in\n    tag_25:\n      mload(0x40)\n      dup1\n      swap2\n      sub\n      swap1\n      return\n        /* \"contracts/ArrayType.sol\":951:1088  function testStorageDynamicArray()public view returns(uint8[] memory){... */\n    tag_9:\n        /* \"contracts/ArrayType.sol\":1005:1019  uint8[] memory */\n      0x60\n        /* \"contracts/ArrayType.sol\":1030:1051  uint8[] storage mdata */\n      0x00\n        /* \"contracts/ArrayType.sol\":1054:1059  ddata */\n      0x01\n        /* \"contracts/ArrayType.sol\":1030:1059  uint8[] storage mdata = ddata */\n      swap1\n      pop\n        /* \"contracts/ArrayType.sol\":1076:1081  mdata */\n      dup1\n        /* \"contracts/ArrayType.sol\":1069:1081  return mdata */\n      dup1\n      sload\n      dup1\n      0x20\n      mul\n      0x20\n      add\n      mload(0x40)\n      swap1\n      dup2\n      add\n      0x40\n      mstore\n      dup1\n      swap3\n      swap2\n      swap1\n      dup2\n      dup2\n      mstore\n      0x20\n      add\n      dup3\n      dup1\n      sload\n      dup1\n      iszero\n      tag_28\n      jumpi\n      0x20\n      mul\n      dup3\n      add\n      swap2\n      swap1\n      0x00\n      mstore\n      keccak256(0x00, 0x20)\n      swap1\n      0x00\n      swap1\n    tag_29:\n      dup3\n      dup3\n      swap1\n      sload\n      swap1\n      0x0100\n      exp\n      swap1\n      div\n      0xff\n      and\n      0xff\n      and\n      dup2\n      mstore\n      0x20\n      add\n      swap1\n      0x01\n      add\n      swap1\n      0x20\n      dup3\n      0x00\n      add\n      div\n      swap3\n      dup4\n      add\n      swap3\n      0x01\n      sub\n      dup3\n      mul\n      swap2\n      pop\n      dup1\n      dup5\n      gt\n      tag_29\n      jumpi\n      swap1\n      pop\n    tag_28:\n      pop\n      pop\n      pop\n      pop\n      pop\n      swap2\n      pop\n      pop\n        /* \"contracts/ArrayType.sol\":951:1088  function testStorageDynamicArray()public view returns(uint8[] memory){... */\n      swap1\n      jump\t// out\n        /* \"contracts/ArrayType.sol\":788:945  function testMemoryDynamicArray(uint8 size)public pure returns(uint8[] memory){... */\n    tag_15:\n        /* \"contracts/ArrayType.sol\":851:865  uint8[] memory */\n      0x60\n        /* \"contracts/ArrayType.sol\":876:896  uint8[] memory mdata */\n      0x00\n        /* \"contracts/ArrayType.sol\":911:915  size */\n      dup3\n        /* \"contracts/ArrayType.sol\":899:916  new uint8[](size) */\n      0xff\n      and\n      0xffffffffffffffff\n      dup2\n      gt\n      iszero\n      tag_31\n      jumpi\n      tag_32\n      tag_33\n      jump\t// in\n    tag_32:\n    tag_31:\n      mload(0x40)\n      swap1\n      dup1\n      dup3\n      mstore\n      dup1\n      0x20\n      mul\n      0x20\n      add\n      dup3\n      add\n      0x40\n      mstore\n      dup1\n      iszero\n      tag_34\n      jumpi\n      dup2\n      0x20\n      add\n      0x20\n      dup3\n      mul\n      dup1\n      calldatasize\n      dup4\n      calldatacopy\n      dup1\n      dup3\n      add\n      swap2\n      pop\n      pop\n      swap1\n      pop\n    tag_34:\n      pop\n        /* \"contracts/ArrayType.sol\":876:916  uint8[] memory mdata = new uint8[](size) */\n      swap1\n      pop\n        /* \"contracts/ArrayType.sol\":933:938  mdata */\n      dup1\n        /* \"contracts/ArrayType.sol\":926:938  return mdata */\n      swap2\n      pop\n      pop\n        /* \"contracts/ArrayType.sol\":788:945  function testMemoryDynamicArray(uint8 size)public pure returns(uint8[] memory){... */\n      swap2\n      swap1\n      pop\n      jump\t// out\n        /* \"contracts/ArrayType.sol\":579:699  function testDynamicStorageArray() public view returns (uint8[] memory,uint){... */\n    tag_18:\n        /* \"contracts/ArrayType.sol\":635:649  uint8[] memory */\n      0x60\n        /* \"contracts/ArrayType.sol\":650:654  uint */\n      0x00\n        /* \"contracts/ArrayType.sol\":673:678  ddata */\n      0x01\n        /* \"contracts/ArrayType.sol\":679:684  ddata */\n      dup1\n        /* \"contracts/ArrayType.sol\":679:691  ddata.length */\n      dup1\n      sload\n      swap1\n      pop\n        /* \"contracts/ArrayType.sol\":665:692  return (ddata,ddata.length) */\n      dup2\n      dup1\n      sload\n      dup1\n      0x20\n      mul\n      0x20\n      add\n      mload(0x40)\n      swap1\n      dup2\n      add\n      0x40\n      mstore\n      dup1\n      swap3\n      swap2\n      swap1\n      dup2\n      dup2\n      mstore\n      0x20\n      add\n      dup3\n      dup1\n      sload\n      dup1\n      iszero\n      tag_36\n      jumpi\n      0x20\n      mul\n      dup3\n      add\n      swap2\n      swap1\n      0x00\n      mstore\n      keccak256(0x00, 0x20)\n      swap1\n      0x00\n      swap1\n    tag_37:\n      dup3\n      dup3\n      swap1\n      sload\n      swap1\n      0x0100\n      exp\n      swap1\n      div\n      0xff\n      and\n      0xff\n      and\n      dup2\n      mstore\n      0x20\n      add\n      swap1\n      0x01\n      add\n      swap1\n      0x20\n      dup3\n      0x00\n      add\n      div\n      swap3\n      dup4\n      add\n      swap3\n      0x01\n      sub\n      dup3\n      mul\n      swap2\n      pop\n      dup1\n      dup5\n      gt\n      tag_37\n      jumpi\n      swap1\n      pop\n    tag_36:\n      pop\n      pop\n      pop\n      pop\n      pop\n      swap2\n      pop\n      swap2\n      pop\n      swap2\n      pop\n        /* \"contracts/ArrayType.sol\":579:699  function testDynamicStorageArray() public view returns (uint8[] memory,uint){... */\n      swap1\n      swap2\n      jump\t// out\n        /* \"contracts/ArrayType.sol\":705:782  function testWriteDynamicStorageArray()public {... */\n    tag_22:\n        /* \"contracts/ArrayType.sol\":761:766  ddata */\n      0x01\n        /* \"contracts/ArrayType.sol\":772:774  13 */\n      0x0d\n        /* \"contracts/ArrayType.sol\":761:775  ddata.push(13) */\n      swap1\n      dup1\n      0x01\n      dup2\n      sload\n      add\n      dup1\n      dup3\n      sstore\n      dup1\n      swap2\n      pop\n      pop\n      0x01\n      swap1\n      sub\n      swap1\n      0x00\n      mstore\n      keccak256(0x00, 0x20)\n      swap1\n      0x20\n      swap2\n      dup3\n      dup3\n      div\n      add\n      swap2\n      swap1\n      mod\n      swap1\n      swap2\n      swap1\n      swap2\n      swap1\n      swap2\n      0x0100\n      exp\n      dup2\n      sload\n      dup2\n      0xff\n      mul\n      not\n      and\n      swap1\n      dup4\n      0xff\n      and\n      mul\n      or\n      swap1\n      sstore\n      pop\n        /* \"contracts/ArrayType.sol\":705:782  function testWriteDynamicStorageArray()public {... */\n      jump\t// out\n        /* \"contracts/ArrayType.sol\":346:469  function testStaticArray() public view returns(uint8[3] memory){... */\n    tag_24:\n        /* \"contracts/ArrayType.sol\":393:408  uint8[3] memory */\n      tag_40\n      tag_41\n      jump\t// in\n    tag_40:\n        /* \"contracts/ArrayType.sol\":458:462  data */\n      0x00\n        /* \"contracts/ArrayType.sol\":451:462  return data */\n      0x03\n      dup1\n      0x20\n      mul\n      mload(0x40)\n      swap1\n      dup2\n      add\n      0x40\n      mstore\n      dup1\n      swap3\n      swap2\n      swap1\n      dup3\n      0x03\n      dup1\n      iszero\n      tag_43\n      jumpi\n      0x20\n      mul\n      dup3\n      add\n      swap2\n      0x00\n      swap1\n    tag_44:\n      dup3\n      dup3\n      swap1\n      sload\n      swap1\n      0x0100\n      exp\n      swap1\n      div\n      0xff\n      and\n      0xff\n      and\n      dup2\n      mstore\n      0x20\n      add\n      swap1\n      0x01\n      add\n      swap1\n      0x20\n      dup3\n      0x00\n      add\n      div\n      swap3\n      dup4\n      add\n      swap3\n      0x01\n      sub\n      dup3\n      mul\n      swap2\n      pop\n      dup1\n      dup5\n      gt\n      tag_44\n      jumpi\n      swap1\n      pop\n    tag_43:\n      pop\n      pop\n      pop\n      pop\n      pop\n      swap1\n      pop\n        /* \"contracts/ArrayType.sol\":346:469  function testStaticArray() public view returns(uint8[3] memory){... */\n      swap1\n      jump\t// out\n    tag_41:\n      mload(0x40)\n      dup1\n      0x60\n      add\n      0x40\n      mstore\n      dup1\n      0x03\n      swap1\n      0x20\n      dup3\n      mul\n      dup1\n      calldatasize\n      dup4\n      calldatacopy\n      dup1\n      dup3\n      add\n      swap2\n      pop\n      pop\n      swap1\n      pop\n      pop\n      swap1\n      jump\t// out\n        /* \"#utility.yul\":7:119   */\n    tag_45:\n        /* \"#utility.yul\":72:78   */\n      0x00\n        /* \"#utility.yul\":106:111   */\n      dup2\n        /* \"#utility.yul\":100:112   */\n      mload\n        /* \"#utility.yul\":90:112   */\n      swap1\n      pop\n        /* \"#utility.yul\":7:119   */\n      swap2\n      swap1\n      pop\n      jump\t// out\n        /* \"#utility.yul\":125:307   */\n    tag_46:\n        /* \"#utility.yul\":222:233   */\n      0x00\n        /* \"#utility.yul\":256:262   */\n      dup3\n        /* \"#utility.yul\":251:254   */\n      dup3\n        /* \"#utility.yul\":244:263   */\n      mstore\n        /* \"#utility.yul\":296:300   */\n      0x20\n        /* \"#utility.yul\":291:294   */\n      dup3\n        /* \"#utility.yul\":287:301   */\n      add\n        /* \"#utility.yul\":272:301   */\n      swap1\n      pop\n        /* \"#utility.yul\":125:307   */\n      swap3\n      swap2\n      pop\n      pop\n      jump\t// out\n        /* \"#utility.yul\":313:443   */\n    tag_47:\n        /* \"#utility.yul\":378:382   */\n      0x00\n        /* \"#utility.yul\":401:404   */\n      dup2\n        /* \"#utility.yul\":393:404   */\n      swap1\n      pop\n        /* \"#utility.yul\":431:435   */\n      0x20\n        /* \"#utility.yul\":426:429   */\n      dup3\n        /* \"#utility.yul\":422:436   */\n      add\n        /* \"#utility.yul\":414:436   */\n      swap1\n      pop\n        /* \"#utility.yul\":313:443   */\n      swap2\n      swap1\n      pop\n      jump\t// out\n        /* \"#utility.yul\":449:535   */\n    tag_48:\n        /* \"#utility.yul\":484:491   */\n      0x00\n        /* \"#utility.yul\":524:528   */\n      0xff\n        /* \"#utility.yul\":517:522   */\n      dup3\n        /* \"#utility.yul\":513:529   */\n      and\n        /* \"#utility.yul\":502:529   */\n      swap1\n      pop\n        /* \"#utility.yul\":449:535   */\n      swap2\n      swap1\n      pop\n      jump\t// out\n        /* \"#utility.yul\":541:643   */\n    tag_49:\n        /* \"#utility.yul\":614:636   */\n      tag_71\n        /* \"#utility.yul\":630:635   */\n      dup2\n        /* \"#utility.yul\":614:636   */\n      tag_48\n      jump\t// in\n    tag_71:\n        /* \"#utility.yul\":609:612   */\n      dup3\n        /* \"#utility.yul\":602:637   */\n      mstore\n        /* \"#utility.yul\":541:643   */\n      pop\n      pop\n      jump\t// out\n        /* \"#utility.yul\":649:820   */\n    tag_50:\n        /* \"#utility.yul\":714:724   */\n      0x00\n        /* \"#utility.yul\":735:777   */\n      tag_73\n        /* \"#utility.yul\":773:776   */\n      dup4\n        /* \"#utility.yul\":765:771   */\n      dup4\n        /* \"#utility.yul\":735:777   */\n      tag_49\n      jump\t// in\n    tag_73:\n        /* \"#utility.yul\":809:813   */\n      0x20\n        /* \"#utility.yul\":804:807   */\n      dup4\n        /* \"#utility.yul\":800:814   */\n      add\n        /* \"#utility.yul\":786:814   */\n      swap1\n      pop\n        /* \"#utility.yul\":649:820   */\n      swap3\n      swap2\n      pop\n      pop\n      jump\t// out\n        /* \"#utility.yul\":826:937   */\n    tag_51:\n        /* \"#utility.yul\":894:898   */\n      0x00\n        /* \"#utility.yul\":926:930   */\n      0x20\n        /* \"#utility.yul\":921:924   */\n      dup3\n        /* \"#utility.yul\":917:931   */\n      add\n        /* \"#utility.yul\":909:931   */\n      swap1\n      pop\n        /* \"#utility.yul\":826:937   */\n      swap2\n      swap1\n      pop\n      jump\t// out\n        /* \"#utility.yul\":969:1685   */\n    tag_52:\n        /* \"#utility.yul\":1084:1087   */\n      0x00\n        /* \"#utility.yul\":1113:1165   */\n      tag_76\n        /* \"#utility.yul\":1159:1164   */\n      dup3\n        /* \"#utility.yul\":1113:1165   */\n      tag_45\n      jump\t// in\n    tag_76:\n        /* \"#utility.yul\":1181:1265   */\n      tag_77\n        /* \"#utility.yul\":1258:1264   */\n      dup2\n        /* \"#utility.yul\":1253:1256   */\n      dup6\n        /* \"#utility.yul\":1181:1265   */\n      tag_46\n      jump\t// in\n    tag_77:\n        /* \"#utility.yul\":1174:1265   */\n      swap4\n      pop\n        /* \"#utility.yul\":1289:1343   */\n      tag_78\n        /* \"#utility.yul\":1337:1342   */\n      dup4\n        /* \"#utility.yul\":1289:1343   */\n      tag_47\n      jump\t// in\n    tag_78:\n        /* \"#utility.yul\":1366:1373   */\n      dup1\n        /* \"#utility.yul\":1397:1398   */\n      0x00\n        /* \"#utility.yul\":1382:1660   */\n    tag_79:\n        /* \"#utility.yul\":1407:1413   */\n      dup4\n        /* \"#utility.yul\":1404:1405   */\n      dup2\n        /* \"#utility.yul\":1401:1414   */\n      lt\n        /* \"#utility.yul\":1382:1660   */\n      iszero\n      tag_81\n      jumpi\n        /* \"#utility.yul\":1483:1489   */\n      dup2\n        /* \"#utility.yul\":1477:1490   */\n      mload\n        /* \"#utility.yul\":1510:1569   */\n      tag_82\n        /* \"#utility.yul\":1565:1568   */\n      dup9\n        /* \"#utility.yul\":1550:1563   */\n      dup3\n        /* \"#utility.yul\":1510:1569   */\n      tag_50\n      jump\t// in\n    tag_82:\n        /* \"#utility.yul\":1503:1569   */\n      swap8\n      pop\n        /* \"#utility.yul\":1592:1650   */\n      tag_83\n        /* \"#utility.yul\":1643:1649   */\n      dup4\n        /* \"#utility.yul\":1592:1650   */\n      tag_51\n      jump\t// in\n    tag_83:\n        /* \"#utility.yul\":1582:1650   */\n      swap3\n      pop\n        /* \"#utility.yul\":1442:1660   */\n      pop\n        /* \"#utility.yul\":1429:1430   */\n      0x01\n        /* \"#utility.yul\":1426:1427   */\n      dup2\n        /* \"#utility.yul\":1422:1431   */\n      add\n        /* \"#utility.yul\":1417:1431   */\n      swap1\n      pop\n        /* \"#utility.yul\":1382:1660   */\n      jump(tag_79)\n    tag_81:\n        /* \"#utility.yul\":1386:1400   */\n      pop\n        /* \"#utility.yul\":1676:1679   */\n      dup6\n        /* \"#utility.yul\":1669:1679   */\n      swap4\n      pop\n        /* \"#utility.yul\":1089:1685   */\n      pop\n      pop\n      pop\n        /* \"#utility.yul\":969:1685   */\n      swap3\n      swap2\n      pop\n      pop\n      jump\t// out\n        /* \"#utility.yul\":1691:2056   */\n    tag_11:\n        /* \"#utility.yul\":1830:1834   */\n      0x00\n        /* \"#utility.yul\":1868:1870   */\n      0x20\n        /* \"#utility.yul\":1857:1866   */\n      dup3\n        /* \"#utility.yul\":1853:1871   */\n      add\n        /* \"#utility.yul\":1845:1871   */\n      swap1\n      pop\n        /* \"#utility.yul\":1917:1926   */\n      dup2\n        /* \"#utility.yul\":1911:1915   */\n      dup2\n        /* \"#utility.yul\":1907:1927   */\n      sub\n        /* \"#utility.yul\":1903:1904   */\n      0x00\n        /* \"#utility.yul\":1892:1901   */\n      dup4\n        /* \"#utility.yul\":1888:1905   */\n      add\n        /* \"#utility.yul\":1881:1928   */\n      mstore\n        /* \"#utility.yul\":1945:2049   */\n      tag_85\n        /* \"#utility.yul\":2044:2048   */\n      dup2\n        /* \"#utility.yul\":2035:2041   */\n      dup5\n        /* \"#utility.yul\":1945:2049   */\n      tag_52\n      jump\t// in\n    tag_85:\n        /* \"#utility.yul\":1937:2049   */\n      swap1\n      pop\n        /* \"#utility.yul\":1691:2056   */\n      swap3\n      swap2\n      pop\n      pop\n      jump\t// out\n        /* \"#utility.yul\":2143:2260   */\n    tag_54:\n        /* \"#utility.yul\":2252:2253   */\n      0x00\n        /* \"#utility.yul\":2249:2250   */\n      dup1\n        /* \"#utility.yul\":2242:2254   */\n      revert\n        /* \"#utility.yul\":2389:2507   */\n    tag_56:\n        /* \"#utility.yul\":2460:2482   */\n      tag_90\n        /* \"#utility.yul\":2476:2481   */\n      dup2\n        /* \"#utility.yul\":2460:2482   */\n      tag_48\n      jump\t// in\n    tag_90:\n        /* \"#utility.yul\":2453:2458   */\n      dup2\n        /* \"#utility.yul\":2450:2483   */\n      eq\n        /* \"#utility.yul\":2440:2501   */\n      tag_91\n      jumpi\n        /* \"#utility.yul\":2497:2498   */\n      0x00\n        /* \"#utility.yul\":2494:2495   */\n      dup1\n        /* \"#utility.yul\":2487:2499   */\n      revert\n        /* \"#utility.yul\":2440:2501   */\n    tag_91:\n        /* \"#utility.yul\":2389:2507   */\n      pop\n      jump\t// out\n        /* \"#utility.yul\":2513:2648   */\n    tag_57:\n        /* \"#utility.yul\":2557:2562   */\n      0x00\n        /* \"#utility.yul\":2595:2601   */\n      dup2\n        /* \"#utility.yul\":2582:2602   */\n      calldataload\n        /* \"#utility.yul\":2573:2602   */\n      swap1\n      pop\n        /* \"#utility.yul\":2611:2642   */\n      tag_93\n        /* \"#utility.yul\":2636:2641   */\n      dup2\n        /* \"#utility.yul\":2611:2642   */\n      tag_56\n      jump\t// in\n    tag_93:\n        /* \"#utility.yul\":2513:2648   */\n      swap3\n      swap2\n      pop\n      pop\n      jump\t// out\n        /* \"#utility.yul\":2654:2979   */\n    tag_14:\n        /* \"#utility.yul\":2711:2717   */\n      0x00\n        /* \"#utility.yul\":2760:2762   */\n      0x20\n        /* \"#utility.yul\":2748:2757   */\n      dup3\n        /* \"#utility.yul\":2739:2746   */\n      dup5\n        /* \"#utility.yul\":2735:2758   */\n      sub\n        /* \"#utility.yul\":2731:2763   */\n      slt\n        /* \"#utility.yul\":2728:2847   */\n      iszero\n      tag_95\n      jumpi\n        /* \"#utility.yul\":2766:2845   */\n      tag_96\n      tag_54\n      jump\t// in\n    tag_96:\n        /* \"#utility.yul\":2728:2847   */\n    tag_95:\n        /* \"#utility.yul\":2886:2887   */\n      0x00\n        /* \"#utility.yul\":2911:2962   */\n      tag_97\n        /* \"#utility.yul\":2954:2961   */\n      dup5\n        /* \"#utility.yul\":2945:2951   */\n      dup3\n        /* \"#utility.yul\":2934:2943   */\n      dup6\n        /* \"#utility.yul\":2930:2952   */\n      add\n        /* \"#utility.yul\":2911:2962   */\n      tag_57\n      jump\t// in\n    tag_97:\n        /* \"#utility.yul\":2901:2962   */\n      swap2\n      pop\n        /* \"#utility.yul\":2857:2972   */\n      pop\n        /* \"#utility.yul\":2654:2979   */\n      swap3\n      swap2\n      pop\n      pop\n      jump\t// out\n        /* \"#utility.yul\":2985:3062   */\n    tag_58:\n        /* \"#utility.yul\":3022:3029   */\n      0x00\n        /* \"#utility.yul\":3051:3056   */\n      dup2\n        /* \"#utility.yul\":3040:3056   */\n      swap1\n      pop\n        /* \"#utility.yul\":2985:3062   */\n      swap2\n      swap1\n      pop\n      jump\t// out\n        /* \"#utility.yul\":3068:3186   */\n    tag_59:\n        /* \"#utility.yul\":3155:3179   */\n      tag_100\n        /* \"#utility.yul\":3173:3178   */\n      dup2\n        /* \"#utility.yul\":3155:3179   */\n      tag_58\n      jump\t// in\n    tag_100:\n        /* \"#utility.yul\":3150:3153   */\n      dup3\n        /* \"#utility.yul\":3143:3180   */\n      mstore\n        /* \"#utility.yul\":3068:3186   */\n      pop\n      pop\n      jump\t// out\n        /* \"#utility.yul\":3192:3667   */\n    tag_20:\n        /* \"#utility.yul\":3359:3363   */\n      0x00\n        /* \"#utility.yul\":3397:3399   */\n      0x40\n        /* \"#utility.yul\":3386:3395   */\n      dup3\n        /* \"#utility.yul\":3382:3400   */\n      add\n        /* \"#utility.yul\":3374:3400   */\n      swap1\n      pop\n        /* \"#utility.yul\":3446:3455   */\n      dup2\n        /* \"#utility.yul\":3440:3444   */\n      dup2\n        /* \"#utility.yul\":3436:3456   */\n      sub\n        /* \"#utility.yul\":3432:3433   */\n      0x00\n        /* \"#utility.yul\":3421:3430   */\n      dup4\n        /* \"#utility.yul\":3417:3434   */\n      add\n        /* \"#utility.yul\":3410:3457   */\n      mstore\n        /* \"#utility.yul\":3474:3578   */\n      tag_102\n        /* \"#utility.yul\":3573:3577   */\n      dup2\n        /* \"#utility.yul\":3564:3570   */\n      dup6\n        /* \"#utility.yul\":3474:3578   */\n      tag_52\n      jump\t// in\n    tag_102:\n        /* \"#utility.yul\":3466:3578   */\n      swap1\n      pop\n        /* \"#utility.yul\":3588:3660   */\n      tag_103\n        /* \"#utility.yul\":3656:3658   */\n      0x20\n        /* \"#utility.yul\":3645:3654   */\n      dup4\n        /* \"#utility.yul\":3641:3659   */\n      add\n        /* \"#utility.yul\":3632:3638   */\n      dup5\n        /* \"#utility.yul\":3588:3660   */\n      tag_59\n      jump\t// in\n    tag_103:\n        /* \"#utility.yul\":3192:3667   */\n      swap4\n      swap3\n      pop\n      pop\n      pop\n      jump\t// out\n        /* \"#utility.yul\":3673:3775   */\n    tag_60:\n        /* \"#utility.yul\":3736:3742   */\n      0x00\n        /* \"#utility.yul\":3764:3768   */\n      0x03\n        /* \"#utility.yul\":3754:3768   */\n      swap1\n      pop\n        /* \"#utility.yul\":3673:3775   */\n      swap2\n      swap1\n      pop\n      jump\t// out\n        /* \"#utility.yul\":3781:3922   */\n    tag_61:\n        /* \"#utility.yul\":3876:3887   */\n      0x00\n        /* \"#utility.yul\":3913:3916   */\n      dup2\n        /* \"#utility.yul\":3898:3916   */\n      swap1\n      pop\n        /* \"#utility.yul\":3781:3922   */\n      swap3\n      swap2\n      pop\n      pop\n      jump\t// out\n        /* \"#utility.yul\":3928:4024   */\n    tag_62:\n        /* \"#utility.yul\":3991:3995   */\n      0x00\n        /* \"#utility.yul\":4014:4017   */\n      dup2\n        /* \"#utility.yul\":4006:4017   */\n      swap1\n      pop\n        /* \"#utility.yul\":3928:4024   */\n      swap2\n      swap1\n      pop\n      jump\t// out\n        /* \"#utility.yul\":4030:4139   */\n    tag_63:\n        /* \"#utility.yul\":4096:4100   */\n      0x00\n        /* \"#utility.yul\":4128:4132   */\n      0x20\n        /* \"#utility.yul\":4123:4126   */\n      dup3\n        /* \"#utility.yul\":4119:4133   */\n      add\n        /* \"#utility.yul\":4111:4133   */\n      swap1\n      pop\n        /* \"#utility.yul\":4030:4139   */\n      swap2\n      swap1\n      pop\n      jump\t// out\n        /* \"#utility.yul\":4173:4851   */\n    tag_64:\n        /* \"#utility.yul\":4305:4355   */\n      tag_109\n        /* \"#utility.yul\":4349:4354   */\n      dup2\n        /* \"#utility.yul\":4305:4355   */\n      tag_60\n      jump\t// in\n    tag_109:\n        /* \"#utility.yul\":4371:4453   */\n      tag_110\n        /* \"#utility.yul\":4446:4452   */\n      dup2\n        /* \"#utility.yul\":4441:4444   */\n      dup5\n        /* \"#utility.yul\":4371:4453   */\n      tag_61\n      jump\t// in\n    tag_110:\n        /* \"#utility.yul\":4364:4453   */\n      swap3\n      pop\n        /* \"#utility.yul\":4477:4529   */\n      tag_111\n        /* \"#utility.yul\":4523:4528   */\n      dup3\n        /* \"#utility.yul\":4477:4529   */\n      tag_62\n      jump\t// in\n    tag_111:\n        /* \"#utility.yul\":4552:4559   */\n      dup1\n        /* \"#utility.yul\":4583:4584   */\n      0x00\n        /* \"#utility.yul\":4568:4844   */\n    tag_112:\n        /* \"#utility.yul\":4593:4599   */\n      dup4\n        /* \"#utility.yul\":4590:4591   */\n      dup2\n        /* \"#utility.yul\":4587:4600   */\n      lt\n        /* \"#utility.yul\":4568:4844   */\n      iszero\n      tag_114\n      jumpi\n        /* \"#utility.yul\":4669:4675   */\n      dup2\n        /* \"#utility.yul\":4663:4676   */\n      mload\n        /* \"#utility.yul\":4696:4755   */\n      tag_115\n        /* \"#utility.yul\":4751:4754   */\n      dup8\n        /* \"#utility.yul\":4736:4749   */\n      dup3\n        /* \"#utility.yul\":4696:4755   */\n      tag_50\n      jump\t// in\n    tag_115:\n        /* \"#utility.yul\":4689:4755   */\n      swap7\n      pop\n        /* \"#utility.yul\":4778:4834   */\n      tag_116\n        /* \"#utility.yul\":4827:4833   */\n      dup4\n        /* \"#utility.yul\":4778:4834   */\n      tag_63\n      jump\t// in\n    tag_116:\n        /* \"#utility.yul\":4768:4834   */\n      swap3\n      pop\n        /* \"#utility.yul\":4628:4844   */\n      pop\n        /* \"#utility.yul\":4615:4616   */\n      0x01\n        /* \"#utility.yul\":4612:4613   */\n      dup2\n        /* \"#utility.yul\":4608:4617   */\n      add\n        /* \"#utility.yul\":4603:4617   */\n      swap1\n      pop\n        /* \"#utility.yul\":4568:4844   */\n      jump(tag_112)\n    tag_114:\n        /* \"#utility.yul\":4572:4586   */\n      pop\n        /* \"#utility.yul\":4281:4851   */\n      pop\n      pop\n      pop\n        /* \"#utility.yul\":4173:4851   */\n      pop\n      pop\n      jump\t// out\n        /* \"#utility.yul\":4857:5163   */\n    tag_26:\n        /* \"#utility.yul\":4992:4996   */\n      0x00\n        /* \"#utility.yul\":5030:5032   */\n      0x60\n        /* \"#utility.yul\":5019:5028   */\n      dup3\n        /* \"#utility.yul\":5015:5033   */\n      add\n        /* \"#utility.yul\":5007:5033   */\n      swap1\n      pop\n        /* \"#utility.yul\":5043:5156   */\n      tag_118\n        /* \"#utility.yul\":5153:5154   */\n      0x00\n        /* \"#utility.yul\":5142:5151   */\n      dup4\n        /* \"#utility.yul\":5138:5155   */\n      add\n        /* \"#utility.yul\":5129:5135   */\n      dup5\n        /* \"#utility.yul\":5043:5156   */\n      tag_64\n      jump\t// in\n    tag_118:\n        /* \"#utility.yul\":4857:5163   */\n      swap3\n      swap2\n      pop\n      pop\n      jump\t// out\n        /* \"#utility.yul\":5169:5349   */\n    tag_33:\n        /* \"#utility.yul\":5217:5294   */\n      0x4e487b7100000000000000000000000000000000000000000000000000000000\n        /* \"#utility.yul\":5214:5215   */\n      0x00\n        /* \"#utility.yul\":5207:5295   */\n      mstore\n        /* \"#utility.yul\":5314:5318   */\n      0x41\n        /* \"#utility.yul\":5311:5312   */\n      0x04\n        /* \"#utility.yul\":5304:5319   */\n      mstore\n        /* \"#utility.yul\":5338:5342   */\n      0x24\n        /* \"#utility.yul\":5335:5336   */\n      0x00\n        /* \"#utility.yul\":5328:5343   */\n      revert\n\n    auxdata: 0xa26469706673582212201339c14d8bb36845b6cf18666051db303bb5bf4cad748e7edd83aacbbca65b2a64736f6c634300081a0033\n}\n",
				"bytecode": {
					"linkReferences": {},
					"object": "6080604052348015600e575f80fd5b506105a08061001c5f395ff3fe608060405234801561000f575f80fd5b5060043610610055575f3560e01c8063122436c414610059578063401f98cb14610077578063bf986150146100a7578063d12e9c9c146100c6578063e7c1a47c146100d0575b5f80fd5b6100616100ee565b60405161006e91906103e6565b60405180910390f35b610091600480360381019061008c9190610434565b61016d565b60405161009e91906103e6565b60405180910390f35b6100af6101c7565b6040516100bd929190610477565b60405180910390f35b6100ce61024d565b005b6100d8610293565b6040516100e59190610524565b60405180910390f35b60605f600190508080548060200260200160405190810160405280929190818152602001828054801561016257602002820191905f5260205f20905f905b82829054906101000a900460ff1660ff16815260200190600101906020825f0104928301926001038202915080841161012c5790505b505050505091505090565b60605f8260ff1667ffffffffffffffff81111561018d5761018c61053d565b5b6040519080825280602002602001820160405280156101bb5781602001602082028036833780820191505090505b50905080915050919050565b60605f600180805490508180548060200260200160405190810160405280929190818152602001828054801561023e57602002820191905f5260205f20905f905b82829054906101000a900460ff1660ff16815260200190600101906020825f010492830192600103820291508084116102085790505b50505050509150915091509091565b6001600d908060018154018082558091505060019003905f5260205f2090602091828204019190069091909190916101000a81548160ff021916908360ff160217905550565b61029b610301565b5f6003806020026040519081016040528092919082600380156102f7576020028201915f905b82829054906101000a900460ff1660ff16815260200190600101906020825f010492830192600103820291508084116102c15790505b5050505050905090565b6040518060600160405280600390602082028036833780820191505090505090565b5f81519050919050565b5f82825260208201905092915050565b5f819050602082019050919050565b5f60ff82169050919050565b6103618161034c565b82525050565b5f6103728383610358565b60208301905092915050565b5f602082019050919050565b5f61039482610323565b61039e818561032d565b93506103a98361033d565b805f5b838110156103d95781516103c08882610367565b97506103cb8361037e565b9250506001810190506103ac565b5085935050505092915050565b5f6020820190508181035f8301526103fe818461038a565b905092915050565b5f80fd5b6104138161034c565b811461041d575f80fd5b50565b5f8135905061042e8161040a565b92915050565b5f6020828403121561044957610448610406565b5b5f61045684828501610420565b91505092915050565b5f819050919050565b6104718161045f565b82525050565b5f6040820190508181035f83015261048f818561038a565b905061049e6020830184610468565b9392505050565b5f60039050919050565b5f81905092915050565b5f819050919050565b5f602082019050919050565b6104d7816104a5565b6104e181846104af565b92506104ec826104b9565b805f5b8381101561051c5781516105038782610367565b965061050e836104c2565b9250506001810190506104ef565b505050505050565b5f6060820190506105375f8301846104ce565b92915050565b7f4e487b71000000000000000000000000000000000000000000000000000000005f52604160045260245ffdfea26469706673582212201339c14d8bb36845b6cf18666051db303bb5bf4cad748e7edd83aacbbca65b2a64736f6c634300081a0033",
					"opcodes": "PUSH1 0x80 PUSH1 0x40 MSTORE CALLVALUE DUP1 ISZERO PUSH1 0xE JUMPI PUSH0 DUP1 REVERT JUMPDEST POP PUSH2 0x5A0 DUP1 PUSH2 0x1C PUSH0 CODECOPY PUSH0 RETURN INVALID PUSH1 0x80 PUSH1 0x40 MSTORE CALLVALUE DUP1 ISZERO PUSH2 0xF JUMPI PUSH0 DUP1 REVERT JUMPDEST POP PUSH1 0x4 CALLDATASIZE LT PUSH2 0x55 JUMPI PUSH0 CALLDATALOAD PUSH1 0xE0 SHR DUP1 PUSH4 0x122436C4 EQ PUSH2 0x59 JUMPI DUP1 PUSH4 0x401F98CB EQ PUSH2 0x77 JUMPI DUP1 PUSH4 0xBF986150 EQ PUSH2 0xA7 JUMPI DUP1 PUSH4 0xD12E9C9C EQ PUSH2 0xC6 JUMPI DUP1 PUSH4 0xE7C1A47C EQ PUSH2 0xD0 JUMPI JUMPDEST PUSH0 DUP1 REVERT JUMPDEST PUSH2 0x61 PUSH2 0xEE JUMP JUMPDEST PUSH1 0x40 MLOAD PUSH2 0x6E SWAP2 SWAP1 PUSH2 0x3E6 JUMP JUMPDEST PUSH1 0x40 MLOAD DUP1 SWAP2 SUB SWAP1 RETURN JUMPDEST PUSH2 0x91 PUSH1 0x4 DUP1 CALLDATASIZE SUB DUP2 ADD SWAP1 PUSH2 0x8C SWAP2 SWAP1 PUSH2 0x434 JUMP JUMPDEST PUSH2 0x16D JUMP JUMPDEST PUSH1 0x40 MLOAD PUSH2 0x9E SWAP2 SWAP1 PUSH2 0x3E6 JUMP JUMPDEST PUSH1 0x40 MLOAD DUP1 SWAP2 SUB SWAP1 RETURN JUMPDEST PUSH2 0xAF PUSH2 0x1C7 JUMP JUMPDEST PUSH1 0x40 MLOAD PUSH2 0xBD SWAP3 SWAP2 SWAP1 PUSH2 0x477 JUMP JUMPDEST PUSH1 0x40 MLOAD DUP1 SWAP2 SUB SWAP1 RETURN JUMPDEST PUSH2 0xCE PUSH2 0x24D JUMP JUMPDEST STOP JUMPDEST PUSH2 0xD8 PUSH2 0x293 JUMP JUMPDEST PUSH1 0x40 MLOAD PUSH2 0xE5 SWAP2 SWAP1 PUSH2 0x524 JUMP JUMPDEST PUSH1 0x40 MLOAD DUP1 SWAP2 SUB SWAP1 RETURN JUMPDEST PUSH1 0x60 PUSH0 PUSH1 0x1 SWAP1 POP DUP1 DUP1 SLOAD DUP1 PUSH1 0x20 MUL PUSH1 0x20 ADD PUSH1 0x40 MLOAD SWAP1 DUP2 ADD PUSH1 0x40 MSTORE DUP1 SWAP3 SWAP2 SWAP1 DUP2 DUP2 MSTORE PUSH1 0x20 ADD DUP3 DUP1 SLOAD DUP1 ISZERO PUSH2 0x162 JUMPI PUSH1 0x20 MUL DUP3 ADD SWAP2 SWAP1 PUSH0 MSTORE PUSH1 0x20 PUSH0 KECCAK256 SWAP1 PUSH0 SWAP1 JUMPDEST DUP3 DUP3 SWAP1 SLOAD SWAP1 PUSH2 0x100 EXP SWAP1 DIV PUSH1 0xFF AND PUSH1 0xFF AND DUP2 MSTORE PUSH1 0x20 ADD SWAP1 PUSH1 0x1 ADD SWAP1 PUSH1 0x20 DUP3 PUSH0 ADD DIV SWAP3 DUP4 ADD SWAP3 PUSH1 0x1 SUB DUP3 MUL SWAP2 POP DUP1 DUP5 GT PUSH2 0x12C JUMPI SWAP1 POP JUMPDEST POP POP POP POP POP SWAP2 POP POP SWAP1 JUMP JUMPDEST PUSH1 0x60 PUSH0 DUP3 PUSH1 0xFF AND PUSH8 0xFFFFFFFFFFFFFFFF DUP2 GT ISZERO PUSH2 0x18D JUMPI PUSH2 0x18C PUSH2 0x53D JUMP JUMPDEST JUMPDEST PUSH1 0x40 MLOAD SWAP1 DUP1 DUP3 MSTORE DUP1 PUSH1 0x20 MUL PUSH1 0x20 ADD DUP3 ADD PUSH1 0x40 MSTORE DUP1 ISZERO PUSH2 0x1BB JUMPI DUP2 PUSH1 0x20 ADD PUSH1 0x20 DUP3 MUL DUP1 CALLDATASIZE DUP4 CALLDATACOPY DUP1 DUP3 ADD SWAP2 POP POP SWAP1 POP JUMPDEST POP SWAP1 POP DUP1 SWAP2 POP POP SWAP2 SWAP1 POP JUMP JUMPDEST PUSH1 0x60 PUSH0 PUSH1 0x1 DUP1 DUP1 SLOAD SWAP1 POP DUP2 DUP1 SLOAD DUP1 PUSH1 0x20 MUL PUSH1 0x20 ADD PUSH1 0x40 MLOAD SWAP1 DUP2 ADD PUSH1 0x40 MSTORE DUP1 SWAP3 SWAP2 SWAP1 DUP2 DUP2 MSTORE PUSH1 0x20 ADD DUP3 DUP1 SLOAD DUP1 ISZERO PUSH2 0x23E JUMPI PUSH1 0x20 MUL DUP3 ADD SWAP2 SWAP1 PUSH0 MSTORE PUSH1 0x20 PUSH0 KECCAK256 SWAP1 PUSH0 SWAP1 JUMPDEST DUP3 DUP3 SWAP1 SLOAD SWAP1 PUSH2 0x100 EXP SWAP1 DIV PUSH1 0xFF AND PUSH1 0xFF AND DUP2 MSTORE PUSH1 0x20 ADD SWAP1 PUSH1 0x1 ADD SWAP1 PUSH1 0x20 DUP3 PUSH0 ADD DIV SWAP3 DUP4 ADD SWAP3 PUSH1 0x1 SUB DUP3 MUL SWAP2 POP DUP1 DUP5 GT PUSH2 0x208 JUMPI SWAP1 POP JUMPDEST POP POP POP POP POP SWAP2 POP SWAP2 POP SWAP2 POP SWAP1 SWAP2 JUMP JUMPDEST PUSH1 0x1 PUSH1 0xD SWAP1 DUP1 PUSH1 0x1 DUP2 SLOAD ADD DUP1 DUP3 SSTORE DUP1 SWAP2 POP POP PUSH1 0x1 SWAP1 SUB SWAP1 PUSH0 MSTORE PUSH1 0x20 PUSH0 KECCAK256 SWAP1 PUSH1 0x20 SWAP2 DUP3 DUP3 DIV ADD SWAP2 SWAP1 MOD SWAP1 SWAP2 SWAP1 SWAP2 SWAP1 SWAP2 PUSH2 0x100 EXP DUP2 SLOAD DUP2 PUSH1 0xFF MUL NOT AND SWAP1 DUP4 PUSH1 0xFF AND MUL OR SWAP1 SSTORE POP JUMP JUMPDEST PUSH2 0x29B PUSH2 0x301 JUMP JUMPDEST PUSH0 PUSH1 0x3 DUP1 PUSH1 0x20 MUL PUSH1 0x40 MLOAD SWAP1 DUP2 ADD PUSH1 0x40 MSTORE DUP1 SWAP3 SWAP2 SWAP1 DUP3 PUSH1 0x3 DUP1 ISZERO PUSH2 0x2F7 JUMPI PUSH1 0x20 MUL DUP3 ADD SWAP2 PUSH0 SWAP1 JUMPDEST DUP3 DUP3 SWAP1 SLOAD SWAP1 PUSH2 0x100 EXP SWAP1 DIV PUSH1 0xFF AND PUSH1 0xFF AND DUP2 MSTORE PUSH1 0x20 ADD SWAP1 PUSH1 0x1 ADD SWAP1 PUSH1 0x20 DUP3 PUSH0 ADD DIV SWAP3 DUP4 ADD SWAP3 PUSH1 0x1 SUB DUP3 MUL SWAP2 POP DUP1 DUP5 GT PUSH2 0x2C1 JUMPI SWAP1 POP JUMPDEST POP POP POP POP POP SWAP1 POP SWAP1 JUMP JUMPDEST PUSH1 0x40 MLOAD DUP1 PUSH1 0x60 ADD PUSH1 0x40 MSTORE DUP1 PUSH1 0x3 SWAP1 PUSH1 0x20 DUP3 MUL DUP1 CALLDATASIZE DUP4 CALLDATACOPY DUP1 DUP3 ADD SWAP2 POP POP SWAP1 POP POP SWAP1 JUMP JUMPDEST PUSH0 DUP2 MLOAD SWAP1 POP SWAP2 SWAP1 POP JUMP JUMPDEST PUSH0 DUP3 DUP3 MSTORE PUSH1 0x20 DUP3 ADD SWAP1 POP SWAP3 SWAP2 POP POP JUMP JUMPDEST PUSH0 DUP2 SWAP1 POP PUSH1 0x20 DUP3 ADD SWAP1 POP SWAP2 SWAP1 POP JUMP JUMPDEST PUSH0 PUSH1 0xFF DUP3 AND SWAP1 POP SWAP2 SWAP1 POP JUMP JUMPDEST PUSH2 0x361 DUP2 PUSH2 0x34C JUMP JUMPDEST DUP3 MSTORE POP POP JUMP JUMPDEST PUSH0 PUSH2 0x372 DUP4 DUP4 PUSH2 0x358 JUMP JUMPDEST PUSH1 0x20 DUP4 ADD SWAP1 POP SWAP3 SWAP2 POP POP JUMP JUMPDEST PUSH0 PUSH1 0x20 DUP3 ADD SWAP1 POP SWAP2 SWAP1 POP JUMP JUMPDEST PUSH0 PUSH2 0x394 DUP3 PUSH2 0x323 JUMP JUMPDEST PUSH2 0x39E DUP2 DUP6 PUSH2 0x32D JUMP JUMPDEST SWAP4 POP PUSH2 0x3A9 DUP4 PUSH2 0x33D JUMP JUMPDEST DUP1 PUSH0 JUMPDEST DUP4 DUP2 LT ISZERO PUSH2 0x3D9 JUMPI DUP2 MLOAD PUSH2 0x3C0 DUP9 DUP3 PUSH2 0x367 JUMP JUMPDEST SWAP8 POP PUSH2 0x3CB DUP4 PUSH2 0x37E JUMP JUMPDEST SWAP3 POP POP PUSH1 0x1 DUP2 ADD SWAP1 POP PUSH2 0x3AC JUMP JUMPDEST POP DUP6 SWAP4 POP POP POP POP SWAP3 SWAP2 POP POP JUMP JUMPDEST PUSH0 PUSH1 0x20 DUP3 ADD SWAP1 POP DUP2 DUP2 SUB PUSH0 DUP4 ADD MSTORE PUSH2 0x3FE DUP2 DUP5 PUSH2 0x38A JUMP JUMPDEST SWAP1 POP SWAP3 SWAP2 POP POP JUMP JUMPDEST PUSH0 DUP1 REVERT JUMPDEST PUSH2 0x413 DUP2 PUSH2 0x34C JUMP JUMPDEST DUP2 EQ PUSH2 0x41D JUMPI PUSH0 DUP1 REVERT JUMPDEST POP JUMP JUMPDEST PUSH0 DUP2 CALLDATALOAD SWAP1 POP PUSH2 0x42E DUP2 PUSH2 0x40A JUMP JUMPDEST SWAP3 SWAP2 POP POP JUMP JUMPDEST PUSH0 PUSH1 0x20 DUP3 DUP5 SUB SLT ISZERO PUSH2 0x449 JUMPI PUSH2 0x448 PUSH2 0x406 JUMP JUMPDEST JUMPDEST PUSH0 PUSH2 0x456 DUP5 DUP3 DUP6 ADD PUSH2 0x420 JUMP JUMPDEST SWAP2 POP POP SWAP3 SWAP2 POP POP JUMP JUMPDEST PUSH0 DUP2 SWAP1 POP SWAP2 SWAP1 POP JUMP JUMPDEST PUSH2 0x471 DUP2 PUSH2 0x45F JUMP JUMPDEST DUP3 MSTORE POP POP JUMP JUMPDEST PUSH0 PUSH1 0x40 DUP3 ADD SWAP1 POP DUP2 DUP2 SUB PUSH0 DUP4 ADD MSTORE PUSH2 0x48F DUP2 DUP6 PUSH2 0x38A JUMP JUMPDEST SWAP1 POP PUSH2 0x49E PUSH1 0x20 DUP4 ADD DUP5 PUSH2 0x468 JUMP JUMPDEST SWAP4 SWAP3 POP POP POP JUMP JUMPDEST PUSH0 PUSH1 0x3 SWAP1 POP SWAP2 SWAP1 POP JUMP JUMPDEST PUSH0 DUP2 SWAP1 POP SWAP3 SWAP2 POP POP JUMP JUMPDEST PUSH0 DUP2 SWAP1 POP SWAP2 SWAP1 POP JUMP JUMPDEST PUSH0 PUSH1 0x20 DUP3 ADD SWAP1 POP SWAP2 SWAP1 POP JUMP JUMPDEST PUSH2 0x4D7 DUP2 PUSH2 0x4A5 JUMP JUMPDEST PUSH2 0x4E1 DUP2 DUP5 PUSH2 0x4AF JUMP JUMPDEST SWAP3 POP PUSH2 0x4EC DUP3 PUSH2 0x4B9 JUMP JUMPDEST DUP1 PUSH0 JUMPDEST DUP4 DUP2 LT ISZERO PUSH2 0x51C JUMPI DUP2 MLOAD PUSH2 0x503 DUP8 DUP3 PUSH2 0x367 JUMP JUMPDEST SWAP7 POP PUSH2 0x50E DUP4 PUSH2 0x4C2 JUMP JUMPDEST SWAP3 POP POP PUSH1 0x1 DUP2 ADD SWAP1 POP PUSH2 0x4EF JUMP JUMPDEST POP POP POP POP POP POP JUMP JUMPDEST PUSH0 PUSH1 0x60 DUP3 ADD SWAP1 POP PUSH2 0x537 PUSH0 DUP4 ADD DUP5 PUSH2 0x4CE JUMP JUMPDEST SWAP3 SWAP2 POP POP JUMP JUMPDEST PUSH32 0x4E487B7100000000000000000000000000000000000000000000000000000000 PUSH0 MSTORE PUSH1 0x41 PUSH1 0x4 MSTORE PUSH1 0x24 PUSH0 REVERT INVALID LOG2 PUSH5 0x6970667358 0x22 SLT KECCAK256 SGT CODECOPY 0xC1 0x4D DUP12 0xB3 PUSH9 0x45B6CF18666051DB30 EXTCODESIZE 0xB5 0xBF 0x4C 0xAD PUSH21 0x8E7EDD83AACBBCA65B2A64736F6C634300081A0033 "
				},
				"gasEstimates": {
					"creation": {
						"codeDepositCost": "288000",
						"executionCost": "322",
						"totalCost": "288322"
					},
					"external": {
						"testDynamicStorageArray()": "infinite",
						"testMemoryDynamicArray(uint8)": "infinite",
						"testStaticArray()": "infinite",
						"testStorageDynamicArray()": "infinite",
						"testWriteDynamicStorageArray()": "50392"
					},
					"internal": {
						"testStaticArray1()": "infinite"
					}
				},
				"methodIdentifiers": {
					"testDynamicStorageArray()": "bf986150",
					"testMemoryDynamicArray(uint8)": "401f98cb",
					"testStaticArray()": "e7c1a47c",
					"testStorageDynamicArray()": "122436c4",
					"testWriteDynamicStorageArray()": "d12e9c9c"
				}
			},
			"storageLayout": {
				"storage": [
					{
						"astId": 6,
						"contract": "contracts/ArrayType.sol:ArrayType",
						"label": "data",
						"offset": 0,
						"slot": "0",
						"type": "t_array(t_uint8)3_storage"
					},
					{
						"astId": 9,
						"contract": "contracts/ArrayType.sol:ArrayType",
						"label": "ddata",
						"offset": 0,
						"slot": "1",
						"type": "t_array(t_uint8)dyn_storage"
					}
				],
				"types": {
					"t_array(t_uint8)3_storage": {
						"base": "t_uint8",
						"encoding": "inplace",
						"label": "uint8[3]",
						"numberOfBytes": "32"
					},
					"t_array(t_uint8)dyn_storage": {
						"base": "t_uint8",
						"encoding": "dynamic_array",
						"label": "uint8[]",
						"numberOfBytes": "32"
					},
					"t_uint8": {
						"encoding": "inplace",
						"label": "uint8",
						"numberOfBytes": "1"
					}
				}
			},
			"userdoc": {
				"kind": "user",
				"methods": {},
				"version": 1
			}
		}
	}
}