{
	"data": {
		"bytecode": {
			"linkReferences": {},
			"object": "6080604052348015600e575f80fd5b5061020d8061001c5f395ff3fe608060405234801561000f575f80fd5b5060043610610033575f3560e01c8062e5561d146100375780633a08cf9214610055575b5f80fd5b61003f610073565b60405161004c91906100d1565b60405180910390f35b61005d6100ac565b60405161006a919061015d565b60405180910390f35b5f80601990508080610084906101af565b9150505f61ffff801690505f600890505f600990508091508160ff1690508294505050505090565b5f80600190508091505090565b5f819050919050565b6100cb816100b9565b82525050565b5f6020820190506100e45f8301846100c2565b92915050565b7f4e487b71000000000000000000000000000000000000000000000000000000005f52602160045260245ffd5b60028110610128576101276100ea565b5b50565b5f81905061013882610117565b919050565b5f6101478261012b565b9050919050565b6101578161013d565b82525050565b5f6020820190506101705f83018461014e565b92915050565b7f4e487b71000000000000000000000000000000000000000000000000000000005f52601160045260245ffd5b5f60ff82169050919050565b5f6101b9826101a3565b915060ff82036101cc576101cb610176565b5b60018201905091905056fea264697066735822122064913f6bc7f0f287a6b5de1d9fc0fd4eac509bf9c1424889b4988ad5809066df64736f6c634300081a0033",
			"opcodes": "PUSH1 0x80 PUSH1 0x40 MSTORE CALLVALUE DUP1 ISZERO PUSH1 0xE JUMPI PUSH0 DUP1 REVERT JUMPDEST POP PUSH2 0x20D DUP1 PUSH2 0x1C PUSH0 CODECOPY PUSH0 RETURN INVALID PUSH1 0x80 PUSH1 0x40 MSTORE CALLVALUE DUP1 ISZERO PUSH2 0xF JUMPI PUSH0 DUP1 REVERT JUMPDEST POP PUSH1 0x4 CALLDATASIZE LT PUSH2 0x33 JUMPI PUSH0 CALLDATALOAD PUSH1 0xE0 SHR DUP1 PUSH3 0xE5561D EQ PUSH2 0x37 JUMPI DUP1 PUSH4 0x3A08CF92 EQ PUSH2 0x55 JUMPI JUMPDEST PUSH0 DUP1 REVERT JUMPDEST PUSH2 0x3F PUSH2 0x73 JUMP JUMPDEST PUSH1 0x40 MLOAD PUSH2 0x4C SWAP2 SWAP1 PUSH2 0xD1 JUMP JUMPDEST PUSH1 0x40 MLOAD DUP1 SWAP2 SUB SWAP1 RETURN JUMPDEST PUSH2 0x5D PUSH2 0xAC JUMP JUMPDEST PUSH1 0x40 MLOAD PUSH2 0x6A SWAP2 SWAP1 PUSH2 0x15D JUMP JUMPDEST PUSH1 0x40 MLOAD DUP1 SWAP2 SUB SWAP1 RETURN JUMPDEST PUSH0 DUP1 PUSH1 0x19 SWAP1 POP DUP1 DUP1 PUSH2 0x84 SWAP1 PUSH2 0x1AF JUMP JUMPDEST SWAP2 POP POP PUSH0 PUSH2 0xFFFF DUP1 AND SWAP1 POP PUSH0 PUSH1 0x8 SWAP1 POP PUSH0 PUSH1 0x9 SWAP1 POP DUP1 SWAP2 POP DUP2 PUSH1 0xFF AND SWAP1 POP DUP3 SWAP5 POP POP POP POP POP SWAP1 JUMP JUMPDEST PUSH0 DUP1 PUSH1 0x1 SWAP1 POP DUP1 SWAP2 POP POP SWAP1 JUMP JUMPDEST PUSH0 DUP2 SWAP1 POP SWAP2 SWAP1 POP JUMP JUMPDEST PUSH2 0xCB DUP2 PUSH2 0xB9 JUMP JUMPDEST DUP3 MSTORE POP POP JUMP JUMPDEST PUSH0 PUSH1 0x20 DUP3 ADD SWAP1 POP PUSH2 0xE4 PUSH0 DUP4 ADD DUP5 PUSH2 0xC2 JUMP JUMPDEST SWAP3 SWAP2 POP POP JUMP JUMPDEST PUSH32 0x4E487B7100000000000000000000000000000000000000000000000000000000 PUSH0 MSTORE PUSH1 0x21 PUSH1 0x4 MSTORE PUSH1 0x24 PUSH0 REVERT JUMPDEST PUSH1 0x2 DUP2 LT PUSH2 0x128 JUMPI PUSH2 0x127 PUSH2 0xEA JUMP JUMPDEST JUMPDEST POP JUMP JUMPDEST PUSH0 DUP2 SWAP1 POP PUSH2 0x138 DUP3 PUSH2 0x117 JUMP JUMPDEST SWAP2 SWAP1 POP JUMP JUMPDEST PUSH0 PUSH2 0x147 DUP3 PUSH2 0x12B JUMP JUMPDEST SWAP1 POP SWAP2 SWAP1 POP JUMP JUMPDEST PUSH2 0x157 DUP2 PUSH2 0x13D JUMP JUMPDEST DUP3 MSTORE POP POP JUMP JUMPDEST PUSH0 PUSH1 0x20 DUP3 ADD SWAP1 POP PUSH2 0x170 PUSH0 DUP4 ADD DUP5 PUSH2 0x14E JUMP JUMPDEST SWAP3 SWAP2 POP POP JUMP JUMPDEST PUSH32 0x4E487B7100000000000000000000000000000000000000000000000000000000 PUSH0 MSTORE PUSH1 0x11 PUSH1 0x4 MSTORE PUSH1 0x24 PUSH0 REVERT JUMPDEST PUSH0 PUSH1 0xFF DUP3 AND SWAP1 POP SWAP2 SWAP1 POP JUMP JUMPDEST PUSH0 PUSH2 0x1B9 DUP3 PUSH2 0x1A3 JUMP JUMPDEST SWAP2 POP PUSH1 0xFF DUP3 SUB PUSH2 0x1CC JUMPI PUSH2 0x1CB PUSH2 0x176 JUMP JUMPDEST JUMPDEST PUSH1 0x1 DUP3 ADD SWAP1 POP SWAP2 SWAP1 POP JUMP INVALID LOG2 PUSH5 0x6970667358 0x22 SLT KECCAK256 PUSH5 0x913F6BC7F0 CALLCODE DUP8 0xA6 0xB5 0xDE SAR SWAP16 0xC0 REVERT 0x4E 0xAC POP SWAP12 0xF9 0xC1 TIMESTAMP BASEFEE DUP10 0xB4 SWAP9 DUP11 0xD5 DUP1 SWAP1 PUSH7 0xDF64736F6C6343 STOP ADDMOD BYTE STOP CALLER "
		},
		"gasEstimates": {
			"creation": {
				"codeDepositCost": "105000",
				"executionCost": "151",
				"totalCost": "105151"
			},
			"external": {
				"enumTest()": "439",
				"testInt()": "530"
			}
		},
		"methodIdentifiers": {
			"enumTest()": "3a08cf92",
			"testInt()": "00e5561d"
		}
	},
	"abi": [
		{
			"inputs": [],
			"name": "enumTest",
			"outputs": [
				{
					"internalType": "enum BasicType.OrderState",
					"name": "",
					"type": "uint8"
				}
			],
			"stateMutability": "view",
			"type": "function"
		},
		{
			"inputs": [],
			"name": "testInt",
			"outputs": [
				{
					"internalType": "uint256",
					"name": "",
					"type": "uint256"
				}
			],
			"stateMutability": "pure",
			"type": "function"
		}
	]
}