{
	"data": {
		"bytecode": {
			"linkReferences": {},
			"object": "6080604052348015600e575f80fd5b5061022f8061001c5f395ff3fe608060405234801561000f575f80fd5b506004361061004a575f3560e01c8063262330b41461004e57806345ee763b1461006c5780639ff76d701461008a578063c36631b4146100a8575b5f80fd5b6100566100b2565b6040516100639190610160565b60405180910390f35b6100746100be565b60405161008191906101b3565b60405180910390f35b61009261010e565b60405161009f9190610160565b60405180910390f35b6100b061011a565b005b5f803390508091505090565b5f806211011060e81b90505f816002600381106100de576100dd6101cc565b5b1a60f81b9050807effffffffffffffffffffffffffffffffffffffffffffffffffffffffffffff19169250505090565b5f803090508091505090565b5f30905050565b5f73ffffffffffffffffffffffffffffffffffffffff82169050919050565b5f61014a82610121565b9050919050565b61015a81610140565b82525050565b5f6020820190506101735f830184610151565b92915050565b5f7fffffff000000000000000000000000000000000000000000000000000000000082169050919050565b6101ad81610179565b82525050565b5f6020820190506101c65f8301846101a4565b92915050565b7f4e487b71000000000000000000000000000000000000000000000000000000005f52603260045260245ffdfea2646970667358221220feb8450c484097a864e8246093cbd3f07abc54fb844169b8536bb2c972acc51864736f6c634300081a0033",
			"opcodes": "PUSH1 0x80 PUSH1 0x40 MSTORE CALLVALUE DUP1 ISZERO PUSH1 0xE JUMPI PUSH0 DUP1 REVERT JUMPDEST POP PUSH2 0x22F DUP1 PUSH2 0x1C PUSH0 CODECOPY PUSH0 RETURN INVALID PUSH1 0x80 PUSH1 0x40 MSTORE CALLVALUE DUP1 ISZERO PUSH2 0xF JUMPI PUSH0 DUP1 REVERT JUMPDEST POP PUSH1 0x4 CALLDATASIZE LT PUSH2 0x4A JUMPI PUSH0 CALLDATALOAD PUSH1 0xE0 SHR DUP1 PUSH4 0x262330B4 EQ PUSH2 0x4E JUMPI DUP1 PUSH4 0x45EE763B EQ PUSH2 0x6C JUMPI DUP1 PUSH4 0x9FF76D70 EQ PUSH2 0x8A JUMPI DUP1 PUSH4 0xC36631B4 EQ PUSH2 0xA8 JUMPI JUMPDEST PUSH0 DUP1 REVERT JUMPDEST PUSH2 0x56 PUSH2 0xB2 JUMP JUMPDEST PUSH1 0x40 MLOAD PUSH2 0x63 SWAP2 SWAP1 PUSH2 0x160 JUMP JUMPDEST PUSH1 0x40 MLOAD DUP1 SWAP2 SUB SWAP1 RETURN JUMPDEST PUSH2 0x74 PUSH2 0xBE JUMP JUMPDEST PUSH1 0x40 MLOAD PUSH2 0x81 SWAP2 SWAP1 PUSH2 0x1B3 JUMP JUMPDEST PUSH1 0x40 MLOAD DUP1 SWAP2 SUB SWAP1 RETURN JUMPDEST PUSH2 0x92 PUSH2 0x10E JUMP JUMPDEST PUSH1 0x40 MLOAD PUSH2 0x9F SWAP2 SWAP1 PUSH2 0x160 JUMP JUMPDEST PUSH1 0x40 MLOAD DUP1 SWAP2 SUB SWAP1 RETURN JUMPDEST PUSH2 0xB0 PUSH2 0x11A JUMP JUMPDEST STOP JUMPDEST PUSH0 DUP1 CALLER SWAP1 POP DUP1 SWAP2 POP POP SWAP1 JUMP JUMPDEST PUSH0 DUP1 PUSH3 0x110110 PUSH1 0xE8 SHL SWAP1 POP PUSH0 DUP2 PUSH1 0x2 PUSH1 0x3 DUP2 LT PUSH2 0xDE JUMPI PUSH2 0xDD PUSH2 0x1CC JUMP JUMPDEST JUMPDEST BYTE PUSH1 0xF8 SHL SWAP1 POP DUP1 PUSH31 0xFFFFFFFFFFFFFFFFFFFFFFFFFFFFFFFFFFFFFFFFFFFFFFFFFFFFFFFFFFFFFF NOT AND SWAP3 POP POP POP SWAP1 JUMP JUMPDEST PUSH0 DUP1 ADDRESS SWAP1 POP DUP1 SWAP2 POP POP SWAP1 JUMP JUMPDEST PUSH0 ADDRESS SWAP1 POP POP JUMP JUMPDEST PUSH0 PUSH20 0xFFFFFFFFFFFFFFFFFFFFFFFFFFFFFFFFFFFFFFFF DUP3 AND SWAP1 POP SWAP2 SWAP1 POP JUMP JUMPDEST PUSH0 PUSH2 0x14A DUP3 PUSH2 0x121 JUMP JUMPDEST SWAP1 POP SWAP2 SWAP1 POP JUMP JUMPDEST PUSH2 0x15A DUP2 PUSH2 0x140 JUMP JUMPDEST DUP3 MSTORE POP POP JUMP JUMPDEST PUSH0 PUSH1 0x20 DUP3 ADD SWAP1 POP PUSH2 0x173 PUSH0 DUP4 ADD DUP5 PUSH2 0x151 JUMP JUMPDEST SWAP3 SWAP2 POP POP JUMP JUMPDEST PUSH0 PUSH32 0xFFFFFF0000000000000000000000000000000000000000000000000000000000 DUP3 AND SWAP1 POP SWAP2 SWAP1 POP JUMP JUMPDEST PUSH2 0x1AD DUP2 PUSH2 0x179 JUMP JUMPDEST DUP3 MSTORE POP POP JUMP JUMPDEST PUSH0 PUSH1 0x20 DUP3 ADD SWAP1 POP PUSH2 0x1C6 PUSH0 DUP4 ADD DUP5 PUSH2 0x1A4 JUMP JUMPDEST SWAP3 SWAP2 POP POP JUMP JUMPDEST PUSH32 0x4E487B7100000000000000000000000000000000000000000000000000000000 PUSH0 MSTORE PUSH1 0x32 PUSH1 0x4 MSTORE PUSH1 0x24 PUSH0 REVERT INVALID LOG2 PUSH5 0x6970667358 0x22 SLT KECCAK256 INVALID 0xB8 GASLIMIT 0xC BASEFEE BLOCKHASH SWAP8 0xA8 PUSH5 0xE8246093CB 0xD3 CREATE PUSH27 0xBC54FB844169B8536BB2C972ACC51864736F6C634300081A003300 "
		},
		"gasEstimates": {
			"creation": {
				"codeDepositCost": "111800",
				"executionCost": "157",
				"totalCost": "111957"
			},
			"external": {
				"testAddress()": "370",
				"testContract()": "198",
				"testFixedByteArray()": "413",
				"testMyAddress()": "414"
			}
		},
		"methodIdentifiers": {
			"testAddress()": "262330b4",
			"testContract()": "c36631b4",
			"testFixedByteArray()": "45ee763b",
			"testMyAddress()": "9ff76d70"
		}
	},
	"abi": [
		{
			"inputs": [],
			"name": "testAddress",
			"outputs": [
				{
					"internalType": "address",
					"name": "",
					"type": "address"
				}
			],
			"stateMutability": "view",
			"type": "function"
		},
		{
			"inputs": [],
			"name": "testContract",
			"outputs": [],
			"stateMutability": "view",
			"type": "function"
		},
		{
			"inputs": [],
			"name": "testFixedByteArray",
			"outputs": [
				{
					"internalType": "bytes3",
					"name": "",
					"type": "bytes3"
				}
			],
			"stateMutability": "pure",
			"type": "function"
		},
		{
			"inputs": [],
			"name": "testMyAddress",
			"outputs": [
				{
					"internalType": "address",
					"name": "",
					"type": "address"
				}
			],
			"stateMutability": "view",
			"type": "function"
		}
	]
}