{
	"contracts/CallContract/Caller.sol": {
		"Caller": {
			"abi": [
				{
					"inputs": [
						{
							"internalType": "address",
							"name": "_calleeAddress",
							"type": "address"
						}
					],
					"stateMutability": "nonpayable",
					"type": "constructor"
				},
				{
					"inputs": [],
					"name": "calleeAddress",
					"outputs": [
						{
							"internalType": "address",
							"name": "",
							"type": "address"
						}
					],
					"stateMutability": "view",
					"type": "function"
				},
				{
					"inputs": [
						{
							"internalType": "uint256",
							"name": "_x",
							"type": "uint256"
						}
					],
					"name": "setCalleeX",
					"outputs": [],
					"stateMutability": "nonpayable",
					"type": "function"
				},
				{
					"inputs": [],
					"name": "xx",
					"outputs": [
						{
							"internalType": "uint256",
							"name": "",
							"type": "uint256"
						}
					],
					"stateMutability": "view",
					"type": "function"
				}
			],
			"devdoc": {
				"custom:dev-run-script": "./scripts/deploy_with_ethers.ts",
				"details": "Store & retrieve value in a variable",
				"kind": "dev",
				"methods": {},
				"title": "Storage",
				"version": 1
			},
			"evm": {
				"assembly": "    /* \"contracts/CallContract/Caller.sol\":218:703  contract Caller {... */\n  mstore(0x40, 0x80)\n    /* \"contracts/CallContract/Caller.sol\":294:377  constructor (address _calleeAddress){... */\n  callvalue\n  dup1\n  iszero\n  tag_1\n  jumpi\n  0x00\n  dup1\n  revert\ntag_1:\n  pop\n  mload(0x40)\n  sub(codesize, bytecodeSize)\n  dup1\n  bytecodeSize\n  dup4\n  codecopy\n  dup2\n  dup2\n  add\n  0x40\n  mstore\n  dup2\n  add\n  swap1\n  tag_2\n  swap2\n  swap1\n  tag_3\n  jump\t// in\ntag_2:\n    /* \"contracts/CallContract/Caller.sol\":356:370  _calleeAddress */\n  dup1\n    /* \"contracts/CallContract/Caller.sol\":340:353  calleeAddress */\n  0x00\n  dup1\n    /* \"contracts/CallContract/Caller.sol\":340:370  calleeAddress = _calleeAddress */\n  0x0100\n  exp\n  dup2\n  sload\n  dup2\n  0xffffffffffffffffffffffffffffffffffffffff\n  mul\n  not\n  and\n  swap1\n  dup4\n  0xffffffffffffffffffffffffffffffffffffffff\n  and\n  mul\n  or\n  swap1\n  sstore\n  pop\n    /* \"contracts/CallContract/Caller.sol\":294:377  constructor (address _calleeAddress){... */\n  pop\n    /* \"contracts/CallContract/Caller.sol\":218:703  contract Caller {... */\n  jump(tag_6)\n    /* \"#utility.yul\":88:205   */\ntag_8:\n    /* \"#utility.yul\":197:198   */\n  0x00\n    /* \"#utility.yul\":194:195   */\n  dup1\n    /* \"#utility.yul\":187:199   */\n  revert\n    /* \"#utility.yul\":334:460   */\ntag_10:\n    /* \"#utility.yul\":371:378   */\n  0x00\n    /* \"#utility.yul\":411:453   */\n  0xffffffffffffffffffffffffffffffffffffffff\n    /* \"#utility.yul\":404:409   */\n  dup3\n    /* \"#utility.yul\":400:454   */\n  and\n    /* \"#utility.yul\":389:454   */\n  swap1\n  pop\n    /* \"#utility.yul\":334:460   */\n  swap2\n  swap1\n  pop\n  jump\t// out\n    /* \"#utility.yul\":466:562   */\ntag_11:\n    /* \"#utility.yul\":503:510   */\n  0x00\n    /* \"#utility.yul\":532:556   */\n  tag_20\n    /* \"#utility.yul\":550:555   */\n  dup3\n    /* \"#utility.yul\":532:556   */\n  tag_10\n  jump\t// in\ntag_20:\n    /* \"#utility.yul\":521:556   */\n  swap1\n  pop\n    /* \"#utility.yul\":466:562   */\n  swap2\n  swap1\n  pop\n  jump\t// out\n    /* \"#utility.yul\":568:690   */\ntag_12:\n    /* \"#utility.yul\":641:665   */\n  tag_22\n    /* \"#utility.yul\":659:664   */\n  dup2\n    /* \"#utility.yul\":641:665   */\n  tag_11\n  jump\t// in\ntag_22:\n    /* \"#utility.yul\":634:639   */\n  dup2\n    /* \"#utility.yul\":631:666   */\n  eq\n    /* \"#utility.yul\":621:684   */\n  tag_23\n  jumpi\n    /* \"#utility.yul\":680:681   */\n  0x00\n    /* \"#utility.yul\":677:678   */\n  dup1\n    /* \"#utility.yul\":670:682   */\n  revert\n    /* \"#utility.yul\":621:684   */\ntag_23:\n    /* \"#utility.yul\":568:690   */\n  pop\n  jump\t// out\n    /* \"#utility.yul\":696:839   */\ntag_13:\n    /* \"#utility.yul\":753:758   */\n  0x00\n    /* \"#utility.yul\":784:790   */\n  dup2\n    /* \"#utility.yul\":778:791   */\n  mload\n    /* \"#utility.yul\":769:791   */\n  swap1\n  pop\n    /* \"#utility.yul\":800:833   */\n  tag_25\n    /* \"#utility.yul\":827:832   */\n  dup2\n    /* \"#utility.yul\":800:833   */\n  tag_12\n  jump\t// in\ntag_25:\n    /* \"#utility.yul\":696:839   */\n  swap3\n  swap2\n  pop\n  pop\n  jump\t// out\n    /* \"#utility.yul\":845:1196   */\ntag_3:\n    /* \"#utility.yul\":915:921   */\n  0x00\n    /* \"#utility.yul\":964:966   */\n  0x20\n    /* \"#utility.yul\":952:961   */\n  dup3\n    /* \"#utility.yul\":943:950   */\n  dup5\n    /* \"#utility.yul\":939:962   */\n  sub\n    /* \"#utility.yul\":935:967   */\n  slt\n    /* \"#utility.yul\":932:1051   */\n  iszero\n  tag_27\n  jumpi\n    /* \"#utility.yul\":970:1049   */\n  tag_28\n  tag_8\n  jump\t// in\ntag_28:\n    /* \"#utility.yul\":932:1051   */\ntag_27:\n    /* \"#utility.yul\":1090:1091   */\n  0x00\n    /* \"#utility.yul\":1115:1179   */\n  tag_29\n    /* \"#utility.yul\":1171:1178   */\n  dup5\n    /* \"#utility.yul\":1162:1168   */\n  dup3\n    /* \"#utility.yul\":1151:1160   */\n  dup6\n    /* \"#utility.yul\":1147:1169   */\n  add\n    /* \"#utility.yul\":1115:1179   */\n  tag_13\n  jump\t// in\ntag_29:\n    /* \"#utility.yul\":1105:1179   */\n  swap2\n  pop\n    /* \"#utility.yul\":1061:1189   */\n  pop\n    /* \"#utility.yul\":845:1196   */\n  swap3\n  swap2\n  pop\n  pop\n  jump\t// out\n    /* \"contracts/CallContract/Caller.sol\":218:703  contract Caller {... */\ntag_6:\n  dataSize(sub_0)\n  dup1\n  dataOffset(sub_0)\n  0x00\n  codecopy\n  0x00\n  return\nstop\n\nsub_0: assembly {\n        /* \"contracts/CallContract/Caller.sol\":218:703  contract Caller {... */\n      mstore(0x40, 0x80)\n      callvalue\n      dup1\n      iszero\n      tag_1\n      jumpi\n      0x00\n      dup1\n      revert\n    tag_1:\n      pop\n      jumpi(tag_2, lt(calldatasize, 0x04))\n      shr(0xe0, calldataload(0x00))\n      dup1\n      0x5f6cce24\n      eq\n      tag_3\n      jumpi\n      dup1\n      0x643dfbf9\n      eq\n      tag_4\n      jumpi\n      dup1\n      0xece57b04\n      eq\n      tag_5\n      jumpi\n    tag_2:\n      0x00\n      dup1\n      revert\n        /* \"contracts/CallContract/Caller.sol\":383:697  function setCalleeX(uint _x)public {... */\n    tag_3:\n      tag_6\n      0x04\n      dup1\n      calldatasize\n      sub\n      dup2\n      add\n      swap1\n      tag_7\n      swap2\n      swap1\n      tag_8\n      jump\t// in\n    tag_7:\n      tag_9\n      jump\t// in\n    tag_6:\n      stop\n        /* \"contracts/CallContract/Caller.sol\":240:268  address public calleeAddress */\n    tag_4:\n      tag_10\n      tag_11\n      jump\t// in\n    tag_10:\n      mload(0x40)\n      tag_12\n      swap2\n      swap1\n      tag_13\n      jump\t// in\n    tag_12:\n      mload(0x40)\n      dup1\n      swap2\n      sub\n      swap1\n      return\n        /* \"contracts/CallContract/Caller.sol\":274:288  uint public xx */\n    tag_5:\n      tag_14\n      tag_15\n      jump\t// in\n    tag_14:\n      mload(0x40)\n      tag_16\n      swap2\n      swap1\n      tag_17\n      jump\t// in\n    tag_16:\n      mload(0x40)\n      dup1\n      swap2\n      sub\n      swap1\n      return\n        /* \"contracts/CallContract/Caller.sol\":383:697  function setCalleeX(uint _x)public {... */\n    tag_9:\n        /* \"contracts/CallContract/Caller.sol\":428:443  bytes memory cd */\n      0x00\n        /* \"contracts/CallContract/Caller.sol\":487:489  _x */\n      dup2\n        /* \"contracts/CallContract/Caller.sol\":446:490  abi.encodeWithSignature(\"setNu(uint256)\",_x) */\n      add(0x24, mload(0x40))\n      tag_19\n      swap2\n      swap1\n      tag_17\n      jump\t// in\n    tag_19:\n      mload(0x40)\n      0x20\n      dup2\n      dup4\n      sub\n      sub\n      dup2\n      mstore\n      swap1\n      0x40\n      mstore\n      and(not(0xffffffffffffffffffffffffffffffffffffffffffffffffffffffff), 0xa6299df400000000000000000000000000000000000000000000000000000000)\n      0x20\n      dup3\n      add\n      dup1\n      mload\n      0xffffffffffffffffffffffffffffffffffffffffffffffffffffffff\n      dup4\n      dup2\n      dup4\n      and\n      or\n      dup4\n      mstore\n      pop\n      pop\n      pop\n      pop\n        /* \"contracts/CallContract/Caller.sol\":428:490  bytes memory cd = abi.encodeWithSignature(\"setNu(uint256)\",_x) */\n      swap1\n      pop\n        /* \"contracts/CallContract/Caller.sol\":501:509  bool suc */\n      0x00\n        /* \"contracts/CallContract/Caller.sol\":511:527  bytes memory rst */\n      dup1\n        /* \"contracts/CallContract/Caller.sol\":531:544  calleeAddress */\n      0x00\n      dup1\n      sload\n      swap1\n      0x0100\n      exp\n      swap1\n      div\n      0xffffffffffffffffffffffffffffffffffffffff\n      and\n        /* \"contracts/CallContract/Caller.sol\":531:549  calleeAddress.call */\n      0xffffffffffffffffffffffffffffffffffffffff\n      and\n        /* \"contracts/CallContract/Caller.sol\":550:552  cd */\n      dup4\n        /* \"contracts/CallContract/Caller.sol\":531:553  calleeAddress.call(cd) */\n      mload(0x40)\n      tag_20\n      swap2\n      swap1\n      tag_21\n      jump\t// in\n    tag_20:\n      0x00\n      mload(0x40)\n      dup1\n      dup4\n      sub\n      dup2\n      0x00\n      dup7\n      gas\n      call\n      swap2\n      pop\n      pop\n      returndatasize\n      dup1\n      0x00\n      dup2\n      eq\n      tag_24\n      jumpi\n      mload(0x40)\n      swap2\n      pop\n      and(add(returndatasize, 0x3f), not(0x1f))\n      dup3\n      add\n      0x40\n      mstore\n      returndatasize\n      dup3\n      mstore\n      returndatasize\n      0x00\n      0x20\n      dup5\n      add\n      returndatacopy\n      jump(tag_23)\n    tag_24:\n      0x60\n      swap2\n      pop\n    tag_23:\n      pop\n        /* \"contracts/CallContract/Caller.sol\":500:553  (bool suc, bytes memory rst) = calleeAddress.call(cd) */\n      swap2\n      pop\n      swap2\n      pop\n        /* \"contracts/CallContract/Caller.sol\":567:570  suc */\n      dup2\n        /* \"contracts/CallContract/Caller.sol\":563:617  if(!suc){... */\n      tag_25\n      jumpi\n        /* \"contracts/CallContract/Caller.sol\":585:606  revert(\"call failed\") */\n      mload(0x40)\n      0x08c379a000000000000000000000000000000000000000000000000000000000\n      dup2\n      mstore\n      0x04\n      add\n      tag_26\n      swap1\n      tag_27\n      jump\t// in\n    tag_26:\n      mload(0x40)\n      dup1\n      swap2\n      sub\n      swap1\n      revert\n        /* \"contracts/CallContract/Caller.sol\":563:617  if(!suc){... */\n    tag_25:\n        /* \"contracts/CallContract/Caller.sol\":418:697  {... */\n      pop\n      pop\n      pop\n        /* \"contracts/CallContract/Caller.sol\":383:697  function setCalleeX(uint _x)public {... */\n      pop\n      jump\t// out\n        /* \"contracts/CallContract/Caller.sol\":240:268  address public calleeAddress */\n    tag_11:\n      0x00\n      dup1\n      sload\n      swap1\n      0x0100\n      exp\n      swap1\n      div\n      0xffffffffffffffffffffffffffffffffffffffff\n      and\n      dup2\n      jump\t// out\n        /* \"contracts/CallContract/Caller.sol\":274:288  uint public xx */\n    tag_15:\n      sload(0x01)\n      dup2\n      jump\t// out\n        /* \"#utility.yul\":88:205   */\n    tag_29:\n        /* \"#utility.yul\":197:198   */\n      0x00\n        /* \"#utility.yul\":194:195   */\n      dup1\n        /* \"#utility.yul\":187:199   */\n      revert\n        /* \"#utility.yul\":334:411   */\n    tag_31:\n        /* \"#utility.yul\":371:378   */\n      0x00\n        /* \"#utility.yul\":400:405   */\n      dup2\n        /* \"#utility.yul\":389:405   */\n      swap1\n      pop\n        /* \"#utility.yul\":334:411   */\n      swap2\n      swap1\n      pop\n      jump\t// out\n        /* \"#utility.yul\":417:539   */\n    tag_32:\n        /* \"#utility.yul\":490:514   */\n      tag_51\n        /* \"#utility.yul\":508:513   */\n      dup2\n        /* \"#utility.yul\":490:514   */\n      tag_31\n      jump\t// in\n    tag_51:\n        /* \"#utility.yul\":483:488   */\n      dup2\n        /* \"#utility.yul\":480:515   */\n      eq\n        /* \"#utility.yul\":470:533   */\n      tag_52\n      jumpi\n        /* \"#utility.yul\":529:530   */\n      0x00\n        /* \"#utility.yul\":526:527   */\n      dup1\n        /* \"#utility.yul\":519:531   */\n      revert\n        /* \"#utility.yul\":470:533   */\n    tag_52:\n        /* \"#utility.yul\":417:539   */\n      pop\n      jump\t// out\n        /* \"#utility.yul\":545:684   */\n    tag_33:\n        /* \"#utility.yul\":591:596   */\n      0x00\n        /* \"#utility.yul\":629:635   */\n      dup2\n        /* \"#utility.yul\":616:636   */\n      calldataload\n        /* \"#utility.yul\":607:636   */\n      swap1\n      pop\n        /* \"#utility.yul\":645:678   */\n      tag_54\n        /* \"#utility.yul\":672:677   */\n      dup2\n        /* \"#utility.yul\":645:678   */\n      tag_32\n      jump\t// in\n    tag_54:\n        /* \"#utility.yul\":545:684   */\n      swap3\n      swap2\n      pop\n      pop\n      jump\t// out\n        /* \"#utility.yul\":690:1019   */\n    tag_8:\n        /* \"#utility.yul\":749:755   */\n      0x00\n        /* \"#utility.yul\":798:800   */\n      0x20\n        /* \"#utility.yul\":786:795   */\n      dup3\n        /* \"#utility.yul\":777:784   */\n      dup5\n        /* \"#utility.yul\":773:796   */\n      sub\n        /* \"#utility.yul\":769:801   */\n      slt\n        /* \"#utility.yul\":766:885   */\n      iszero\n      tag_56\n      jumpi\n        /* \"#utility.yul\":804:883   */\n      tag_57\n      tag_29\n      jump\t// in\n    tag_57:\n        /* \"#utility.yul\":766:885   */\n    tag_56:\n        /* \"#utility.yul\":924:925   */\n      0x00\n        /* \"#utility.yul\":949:1002   */\n      tag_58\n        /* \"#utility.yul\":994:1001   */\n      dup5\n        /* \"#utility.yul\":985:991   */\n      dup3\n        /* \"#utility.yul\":974:983   */\n      dup6\n        /* \"#utility.yul\":970:992   */\n      add\n        /* \"#utility.yul\":949:1002   */\n      tag_33\n      jump\t// in\n    tag_58:\n        /* \"#utility.yul\":939:1002   */\n      swap2\n      pop\n        /* \"#utility.yul\":895:1012   */\n      pop\n        /* \"#utility.yul\":690:1019   */\n      swap3\n      swap2\n      pop\n      pop\n      jump\t// out\n        /* \"#utility.yul\":1025:1151   */\n    tag_34:\n        /* \"#utility.yul\":1062:1069   */\n      0x00\n        /* \"#utility.yul\":1102:1144   */\n      0xffffffffffffffffffffffffffffffffffffffff\n        /* \"#utility.yul\":1095:1100   */\n      dup3\n        /* \"#utility.yul\":1091:1145   */\n      and\n        /* \"#utility.yul\":1080:1145   */\n      swap1\n      pop\n        /* \"#utility.yul\":1025:1151   */\n      swap2\n      swap1\n      pop\n      jump\t// out\n        /* \"#utility.yul\":1157:1253   */\n    tag_35:\n        /* \"#utility.yul\":1194:1201   */\n      0x00\n        /* \"#utility.yul\":1223:1247   */\n      tag_61\n        /* \"#utility.yul\":1241:1246   */\n      dup3\n        /* \"#utility.yul\":1223:1247   */\n      tag_34\n      jump\t// in\n    tag_61:\n        /* \"#utility.yul\":1212:1247   */\n      swap1\n      pop\n        /* \"#utility.yul\":1157:1253   */\n      swap2\n      swap1\n      pop\n      jump\t// out\n        /* \"#utility.yul\":1259:1377   */\n    tag_36:\n        /* \"#utility.yul\":1346:1370   */\n      tag_63\n        /* \"#utility.yul\":1364:1369   */\n      dup2\n        /* \"#utility.yul\":1346:1370   */\n      tag_35\n      jump\t// in\n    tag_63:\n        /* \"#utility.yul\":1341:1344   */\n      dup3\n        /* \"#utility.yul\":1334:1371   */\n      mstore\n        /* \"#utility.yul\":1259:1377   */\n      pop\n      pop\n      jump\t// out\n        /* \"#utility.yul\":1383:1605   */\n    tag_13:\n        /* \"#utility.yul\":1476:1480   */\n      0x00\n        /* \"#utility.yul\":1514:1516   */\n      0x20\n        /* \"#utility.yul\":1503:1512   */\n      dup3\n        /* \"#utility.yul\":1499:1517   */\n      add\n        /* \"#utility.yul\":1491:1517   */\n      swap1\n      pop\n        /* \"#utility.yul\":1527:1598   */\n      tag_65\n        /* \"#utility.yul\":1595:1596   */\n      0x00\n        /* \"#utility.yul\":1584:1593   */\n      dup4\n        /* \"#utility.yul\":1580:1597   */\n      add\n        /* \"#utility.yul\":1571:1577   */\n      dup5\n        /* \"#utility.yul\":1527:1598   */\n      tag_36\n      jump\t// in\n    tag_65:\n        /* \"#utility.yul\":1383:1605   */\n      swap3\n      swap2\n      pop\n      pop\n      jump\t// out\n        /* \"#utility.yul\":1611:1729   */\n    tag_37:\n        /* \"#utility.yul\":1698:1722   */\n      tag_67\n        /* \"#utility.yul\":1716:1721   */\n      dup2\n        /* \"#utility.yul\":1698:1722   */\n      tag_31\n      jump\t// in\n    tag_67:\n        /* \"#utility.yul\":1693:1696   */\n      dup3\n        /* \"#utility.yul\":1686:1723   */\n      mstore\n        /* \"#utility.yul\":1611:1729   */\n      pop\n      pop\n      jump\t// out\n        /* \"#utility.yul\":1735:1957   */\n    tag_17:\n        /* \"#utility.yul\":1828:1832   */\n      0x00\n        /* \"#utility.yul\":1866:1868   */\n      0x20\n        /* \"#utility.yul\":1855:1864   */\n      dup3\n        /* \"#utility.yul\":1851:1869   */\n      add\n        /* \"#utility.yul\":1843:1869   */\n      swap1\n      pop\n        /* \"#utility.yul\":1879:1950   */\n      tag_69\n        /* \"#utility.yul\":1947:1948   */\n      0x00\n        /* \"#utility.yul\":1936:1945   */\n      dup4\n        /* \"#utility.yul\":1932:1949   */\n      add\n        /* \"#utility.yul\":1923:1929   */\n      dup5\n        /* \"#utility.yul\":1879:1950   */\n      tag_37\n      jump\t// in\n    tag_69:\n        /* \"#utility.yul\":1735:1957   */\n      swap3\n      swap2\n      pop\n      pop\n      jump\t// out\n        /* \"#utility.yul\":1963:2061   */\n    tag_38:\n        /* \"#utility.yul\":2014:2020   */\n      0x00\n        /* \"#utility.yul\":2048:2053   */\n      dup2\n        /* \"#utility.yul\":2042:2054   */\n      mload\n        /* \"#utility.yul\":2032:2054   */\n      swap1\n      pop\n        /* \"#utility.yul\":1963:2061   */\n      swap2\n      swap1\n      pop\n      jump\t// out\n        /* \"#utility.yul\":2067:2214   */\n    tag_39:\n        /* \"#utility.yul\":2168:2179   */\n      0x00\n        /* \"#utility.yul\":2205:2208   */\n      dup2\n        /* \"#utility.yul\":2190:2208   */\n      swap1\n      pop\n        /* \"#utility.yul\":2067:2214   */\n      swap3\n      swap2\n      pop\n      pop\n      jump\t// out\n        /* \"#utility.yul\":2220:2359   */\n    tag_40:\n        /* \"#utility.yul\":2309:2315   */\n      dup3\n        /* \"#utility.yul\":2304:2307   */\n      dup2\n        /* \"#utility.yul\":2299:2302   */\n      dup4\n        /* \"#utility.yul\":2293:2316   */\n      mcopy\n        /* \"#utility.yul\":2350:2351   */\n      0x00\n        /* \"#utility.yul\":2341:2347   */\n      dup4\n        /* \"#utility.yul\":2336:2339   */\n      dup4\n        /* \"#utility.yul\":2332:2348   */\n      add\n        /* \"#utility.yul\":2325:2352   */\n      mstore\n        /* \"#utility.yul\":2220:2359   */\n      pop\n      pop\n      pop\n      jump\t// out\n        /* \"#utility.yul\":2365:2751   */\n    tag_41:\n        /* \"#utility.yul\":2469:2472   */\n      0x00\n        /* \"#utility.yul\":2497:2535   */\n      tag_74\n        /* \"#utility.yul\":2529:2534   */\n      dup3\n        /* \"#utility.yul\":2497:2535   */\n      tag_38\n      jump\t// in\n    tag_74:\n        /* \"#utility.yul\":2551:2639   */\n      tag_75\n        /* \"#utility.yul\":2632:2638   */\n      dup2\n        /* \"#utility.yul\":2627:2630   */\n      dup6\n        /* \"#utility.yul\":2551:2639   */\n      tag_39\n      jump\t// in\n    tag_75:\n        /* \"#utility.yul\":2544:2639   */\n      swap4\n      pop\n        /* \"#utility.yul\":2648:2713   */\n      tag_76\n        /* \"#utility.yul\":2706:2712   */\n      dup2\n        /* \"#utility.yul\":2701:2704   */\n      dup6\n        /* \"#utility.yul\":2694:2698   */\n      0x20\n        /* \"#utility.yul\":2687:2692   */\n      dup7\n        /* \"#utility.yul\":2683:2699   */\n      add\n        /* \"#utility.yul\":2648:2713   */\n      tag_40\n      jump\t// in\n    tag_76:\n        /* \"#utility.yul\":2738:2744   */\n      dup1\n        /* \"#utility.yul\":2733:2736   */\n      dup5\n        /* \"#utility.yul\":2729:2745   */\n      add\n        /* \"#utility.yul\":2722:2745   */\n      swap2\n      pop\n        /* \"#utility.yul\":2473:2751   */\n      pop\n        /* \"#utility.yul\":2365:2751   */\n      swap3\n      swap2\n      pop\n      pop\n      jump\t// out\n        /* \"#utility.yul\":2757:3028   */\n    tag_21:\n        /* \"#utility.yul\":2887:2890   */\n      0x00\n        /* \"#utility.yul\":2909:3002   */\n      tag_78\n        /* \"#utility.yul\":2998:3001   */\n      dup3\n        /* \"#utility.yul\":2989:2995   */\n      dup5\n        /* \"#utility.yul\":2909:3002   */\n      tag_41\n      jump\t// in\n    tag_78:\n        /* \"#utility.yul\":2902:3002   */\n      swap2\n      pop\n        /* \"#utility.yul\":3019:3022   */\n      dup2\n        /* \"#utility.yul\":3012:3022   */\n      swap1\n      pop\n        /* \"#utility.yul\":2757:3028   */\n      swap3\n      swap2\n      pop\n      pop\n      jump\t// out\n        /* \"#utility.yul\":3034:3203   */\n    tag_42:\n        /* \"#utility.yul\":3118:3129   */\n      0x00\n        /* \"#utility.yul\":3152:3158   */\n      dup3\n        /* \"#utility.yul\":3147:3150   */\n      dup3\n        /* \"#utility.yul\":3140:3159   */\n      mstore\n        /* \"#utility.yul\":3192:3196   */\n      0x20\n        /* \"#utility.yul\":3187:3190   */\n      dup3\n        /* \"#utility.yul\":3183:3197   */\n      add\n        /* \"#utility.yul\":3168:3197   */\n      swap1\n      pop\n        /* \"#utility.yul\":3034:3203   */\n      swap3\n      swap2\n      pop\n      pop\n      jump\t// out\n        /* \"#utility.yul\":3209:3370   */\n    tag_43:\n        /* \"#utility.yul\":3349:3362   */\n      0x63616c6c206661696c6564000000000000000000000000000000000000000000\n        /* \"#utility.yul\":3345:3346   */\n      0x00\n        /* \"#utility.yul\":3337:3343   */\n      dup3\n        /* \"#utility.yul\":3333:3347   */\n      add\n        /* \"#utility.yul\":3326:3363   */\n      mstore\n        /* \"#utility.yul\":3209:3370   */\n      pop\n      jump\t// out\n        /* \"#utility.yul\":3376:3742   */\n    tag_44:\n        /* \"#utility.yul\":3518:3521   */\n      0x00\n        /* \"#utility.yul\":3539:3606   */\n      tag_82\n        /* \"#utility.yul\":3603:3605   */\n      0x0b\n        /* \"#utility.yul\":3598:3601   */\n      dup4\n        /* \"#utility.yul\":3539:3606   */\n      tag_42\n      jump\t// in\n    tag_82:\n        /* \"#utility.yul\":3532:3606   */\n      swap2\n      pop\n        /* \"#utility.yul\":3615:3708   */\n      tag_83\n        /* \"#utility.yul\":3704:3707   */\n      dup3\n        /* \"#utility.yul\":3615:3708   */\n      tag_43\n      jump\t// in\n    tag_83:\n        /* \"#utility.yul\":3733:3735   */\n      0x20\n        /* \"#utility.yul\":3728:3731   */\n      dup3\n        /* \"#utility.yul\":3724:3736   */\n      add\n        /* \"#utility.yul\":3717:3736   */\n      swap1\n      pop\n        /* \"#utility.yul\":3376:3742   */\n      swap2\n      swap1\n      pop\n      jump\t// out\n        /* \"#utility.yul\":3748:4167   */\n    tag_27:\n        /* \"#utility.yul\":3914:3918   */\n      0x00\n        /* \"#utility.yul\":3952:3954   */\n      0x20\n        /* \"#utility.yul\":3941:3950   */\n      dup3\n        /* \"#utility.yul\":3937:3955   */\n      add\n        /* \"#utility.yul\":3929:3955   */\n      swap1\n      pop\n        /* \"#utility.yul\":4001:4010   */\n      dup2\n        /* \"#utility.yul\":3995:3999   */\n      dup2\n        /* \"#utility.yul\":3991:4011   */\n      sub\n        /* \"#utility.yul\":3987:3988   */\n      0x00\n        /* \"#utility.yul\":3976:3985   */\n      dup4\n        /* \"#utility.yul\":3972:3989   */\n      add\n        /* \"#utility.yul\":3965:4012   */\n      mstore\n        /* \"#utility.yul\":4029:4160   */\n      tag_85\n        /* \"#utility.yul\":4155:4159   */\n      dup2\n        /* \"#utility.yul\":4029:4160   */\n      tag_44\n      jump\t// in\n    tag_85:\n        /* \"#utility.yul\":4021:4160   */\n      swap1\n      pop\n        /* \"#utility.yul\":3748:4167   */\n      swap2\n      swap1\n      pop\n      jump\t// out\n\n    auxdata: 0xa264697066735822122068106df5bc057ac73cecb5d58eb02061238f447c975fcaddf36d889a059815d064736f6c634300081a0033\n}\n",
				"bytecode": {
					"linkReferences": {},
					"object": "608060405234801561000f575f80fd5b50604051610528380380610528833981810160405281019061003191906100d4565b805f806101000a81548173ffffffffffffffffffffffffffffffffffffffff021916908373ffffffffffffffffffffffffffffffffffffffff160217905550506100ff565b5f80fd5b5f73ffffffffffffffffffffffffffffffffffffffff82169050919050565b5f6100a38261007a565b9050919050565b6100b381610099565b81146100bd575f80fd5b50565b5f815190506100ce816100aa565b92915050565b5f602082840312156100e9576100e8610076565b5b5f6100f6848285016100c0565b91505092915050565b61041c8061010c5f395ff3fe608060405234801561000f575f80fd5b506004361061003f575f3560e01c80635f6cce2414610043578063643dfbf91461005f578063ece57b041461007d575b5f80fd5b61005d6004803603810190610058919061025b565b61009b565b005b6100676101fb565b60405161007491906102c5565b60405180910390f35b61008561021e565b60405161009291906102ed565b60405180910390f35b5f816040516024016100ad91906102ed565b6040516020818303038152906040527fa6299df4000000000000000000000000000000000000000000000000000000007bffffffffffffffffffffffffffffffffffffffffffffffffffffffff19166020820180517bffffffffffffffffffffffffffffffffffffffffffffffffffffffff838183161783525050505090505f805f8054906101000a900473ffffffffffffffffffffffffffffffffffffffff1673ffffffffffffffffffffffffffffffffffffffff16836040516101729190610358565b5f604051808303815f865af19150503d805f81146101ab576040519150601f19603f3d011682016040523d82523d5f602084013e6101b0565b606091505b5091509150816101f5576040517f08c379a00000000000000000000000000000000000000000000000000000000081526004016101ec906103c8565b60405180910390fd5b50505050565b5f8054906101000a900473ffffffffffffffffffffffffffffffffffffffff1681565b60015481565b5f80fd5b5f819050919050565b61023a81610228565b8114610244575f80fd5b50565b5f8135905061025581610231565b92915050565b5f602082840312156102705761026f610224565b5b5f61027d84828501610247565b91505092915050565b5f73ffffffffffffffffffffffffffffffffffffffff82169050919050565b5f6102af82610286565b9050919050565b6102bf816102a5565b82525050565b5f6020820190506102d85f8301846102b6565b92915050565b6102e781610228565b82525050565b5f6020820190506103005f8301846102de565b92915050565b5f81519050919050565b5f81905092915050565b8281835e5f83830152505050565b5f61033282610306565b61033c8185610310565b935061034c81856020860161031a565b80840191505092915050565b5f6103638284610328565b915081905092915050565b5f82825260208201905092915050565b7f63616c6c206661696c65640000000000000000000000000000000000000000005f82015250565b5f6103b2600b8361036e565b91506103bd8261037e565b602082019050919050565b5f6020820190508181035f8301526103df816103a6565b905091905056fea264697066735822122068106df5bc057ac73cecb5d58eb02061238f447c975fcaddf36d889a059815d064736f6c634300081a0033",
					"opcodes": "PUSH1 0x80 PUSH1 0x40 MSTORE CALLVALUE DUP1 ISZERO PUSH2 0xF JUMPI PUSH0 DUP1 REVERT JUMPDEST POP PUSH1 0x40 MLOAD PUSH2 0x528 CODESIZE SUB DUP1 PUSH2 0x528 DUP4 CODECOPY DUP2 DUP2 ADD PUSH1 0x40 MSTORE DUP2 ADD SWAP1 PUSH2 0x31 SWAP2 SWAP1 PUSH2 0xD4 JUMP JUMPDEST DUP1 PUSH0 DUP1 PUSH2 0x100 EXP DUP2 SLOAD DUP2 PUSH20 0xFFFFFFFFFFFFFFFFFFFFFFFFFFFFFFFFFFFFFFFF MUL NOT AND SWAP1 DUP4 PUSH20 0xFFFFFFFFFFFFFFFFFFFFFFFFFFFFFFFFFFFFFFFF AND MUL OR SWAP1 SSTORE POP POP PUSH2 0xFF JUMP JUMPDEST PUSH0 DUP1 REVERT JUMPDEST PUSH0 PUSH20 0xFFFFFFFFFFFFFFFFFFFFFFFFFFFFFFFFFFFFFFFF DUP3 AND SWAP1 POP SWAP2 SWAP1 POP JUMP JUMPDEST PUSH0 PUSH2 0xA3 DUP3 PUSH2 0x7A JUMP JUMPDEST SWAP1 POP SWAP2 SWAP1 POP JUMP JUMPDEST PUSH2 0xB3 DUP2 PUSH2 0x99 JUMP JUMPDEST DUP2 EQ PUSH2 0xBD JUMPI PUSH0 DUP1 REVERT JUMPDEST POP JUMP JUMPDEST PUSH0 DUP2 MLOAD SWAP1 POP PUSH2 0xCE DUP2 PUSH2 0xAA JUMP JUMPDEST SWAP3 SWAP2 POP POP JUMP JUMPDEST PUSH0 PUSH1 0x20 DUP3 DUP5 SUB SLT ISZERO PUSH2 0xE9 JUMPI PUSH2 0xE8 PUSH2 0x76 JUMP JUMPDEST JUMPDEST PUSH0 PUSH2 0xF6 DUP5 DUP3 DUP6 ADD PUSH2 0xC0 JUMP JUMPDEST SWAP2 POP POP SWAP3 SWAP2 POP POP JUMP JUMPDEST PUSH2 0x41C DUP1 PUSH2 0x10C PUSH0 CODECOPY PUSH0 RETURN INVALID PUSH1 0x80 PUSH1 0x40 MSTORE CALLVALUE DUP1 ISZERO PUSH2 0xF JUMPI PUSH0 DUP1 REVERT JUMPDEST POP PUSH1 0x4 CALLDATASIZE LT PUSH2 0x3F JUMPI PUSH0 CALLDATALOAD PUSH1 0xE0 SHR DUP1 PUSH4 0x5F6CCE24 EQ PUSH2 0x43 JUMPI DUP1 PUSH4 0x643DFBF9 EQ PUSH2 0x5F JUMPI DUP1 PUSH4 0xECE57B04 EQ PUSH2 0x7D JUMPI JUMPDEST PUSH0 DUP1 REVERT JUMPDEST PUSH2 0x5D PUSH1 0x4 DUP1 CALLDATASIZE SUB DUP2 ADD SWAP1 PUSH2 0x58 SWAP2 SWAP1 PUSH2 0x25B JUMP JUMPDEST PUSH2 0x9B JUMP JUMPDEST STOP JUMPDEST PUSH2 0x67 PUSH2 0x1FB JUMP JUMPDEST PUSH1 0x40 MLOAD PUSH2 0x74 SWAP2 SWAP1 PUSH2 0x2C5 JUMP JUMPDEST PUSH1 0x40 MLOAD DUP1 SWAP2 SUB SWAP1 RETURN JUMPDEST PUSH2 0x85 PUSH2 0x21E JUMP JUMPDEST PUSH1 0x40 MLOAD PUSH2 0x92 SWAP2 SWAP1 PUSH2 0x2ED JUMP JUMPDEST PUSH1 0x40 MLOAD DUP1 SWAP2 SUB SWAP1 RETURN JUMPDEST PUSH0 DUP2 PUSH1 0x40 MLOAD PUSH1 0x24 ADD PUSH2 0xAD SWAP2 SWAP1 PUSH2 0x2ED JUMP JUMPDEST PUSH1 0x40 MLOAD PUSH1 0x20 DUP2 DUP4 SUB SUB DUP2 MSTORE SWAP1 PUSH1 0x40 MSTORE PUSH32 0xA6299DF400000000000000000000000000000000000000000000000000000000 PUSH28 0xFFFFFFFFFFFFFFFFFFFFFFFFFFFFFFFFFFFFFFFFFFFFFFFFFFFFFFFF NOT AND PUSH1 0x20 DUP3 ADD DUP1 MLOAD PUSH28 0xFFFFFFFFFFFFFFFFFFFFFFFFFFFFFFFFFFFFFFFFFFFFFFFFFFFFFFFF DUP4 DUP2 DUP4 AND OR DUP4 MSTORE POP POP POP POP SWAP1 POP PUSH0 DUP1 PUSH0 DUP1 SLOAD SWAP1 PUSH2 0x100 EXP SWAP1 DIV PUSH20 0xFFFFFFFFFFFFFFFFFFFFFFFFFFFFFFFFFFFFFFFF AND PUSH20 0xFFFFFFFFFFFFFFFFFFFFFFFFFFFFFFFFFFFFFFFF AND DUP4 PUSH1 0x40 MLOAD PUSH2 0x172 SWAP2 SWAP1 PUSH2 0x358 JUMP JUMPDEST PUSH0 PUSH1 0x40 MLOAD DUP1 DUP4 SUB DUP2 PUSH0 DUP7 GAS CALL SWAP2 POP POP RETURNDATASIZE DUP1 PUSH0 DUP2 EQ PUSH2 0x1AB JUMPI PUSH1 0x40 MLOAD SWAP2 POP PUSH1 0x1F NOT PUSH1 0x3F RETURNDATASIZE ADD AND DUP3 ADD PUSH1 0x40 MSTORE RETURNDATASIZE DUP3 MSTORE RETURNDATASIZE PUSH0 PUSH1 0x20 DUP5 ADD RETURNDATACOPY PUSH2 0x1B0 JUMP JUMPDEST PUSH1 0x60 SWAP2 POP JUMPDEST POP SWAP2 POP SWAP2 POP DUP2 PUSH2 0x1F5 JUMPI PUSH1 0x40 MLOAD PUSH32 0x8C379A000000000000000000000000000000000000000000000000000000000 DUP2 MSTORE PUSH1 0x4 ADD PUSH2 0x1EC SWAP1 PUSH2 0x3C8 JUMP JUMPDEST PUSH1 0x40 MLOAD DUP1 SWAP2 SUB SWAP1 REVERT JUMPDEST POP POP POP POP JUMP JUMPDEST PUSH0 DUP1 SLOAD SWAP1 PUSH2 0x100 EXP SWAP1 DIV PUSH20 0xFFFFFFFFFFFFFFFFFFFFFFFFFFFFFFFFFFFFFFFF AND DUP2 JUMP JUMPDEST PUSH1 0x1 SLOAD DUP2 JUMP JUMPDEST PUSH0 DUP1 REVERT JUMPDEST PUSH0 DUP2 SWAP1 POP SWAP2 SWAP1 POP JUMP JUMPDEST PUSH2 0x23A DUP2 PUSH2 0x228 JUMP JUMPDEST DUP2 EQ PUSH2 0x244 JUMPI PUSH0 DUP1 REVERT JUMPDEST POP JUMP JUMPDEST PUSH0 DUP2 CALLDATALOAD SWAP1 POP PUSH2 0x255 DUP2 PUSH2 0x231 JUMP JUMPDEST SWAP3 SWAP2 POP POP JUMP JUMPDEST PUSH0 PUSH1 0x20 DUP3 DUP5 SUB SLT ISZERO PUSH2 0x270 JUMPI PUSH2 0x26F PUSH2 0x224 JUMP JUMPDEST JUMPDEST PUSH0 PUSH2 0x27D DUP5 DUP3 DUP6 ADD PUSH2 0x247 JUMP JUMPDEST SWAP2 POP POP SWAP3 SWAP2 POP POP JUMP JUMPDEST PUSH0 PUSH20 0xFFFFFFFFFFFFFFFFFFFFFFFFFFFFFFFFFFFFFFFF DUP3 AND SWAP1 POP SWAP2 SWAP1 POP JUMP JUMPDEST PUSH0 PUSH2 0x2AF DUP3 PUSH2 0x286 JUMP JUMPDEST SWAP1 POP SWAP2 SWAP1 POP JUMP JUMPDEST PUSH2 0x2BF DUP2 PUSH2 0x2A5 JUMP JUMPDEST DUP3 MSTORE POP POP JUMP JUMPDEST PUSH0 PUSH1 0x20 DUP3 ADD SWAP1 POP PUSH2 0x2D8 PUSH0 DUP4 ADD DUP5 PUSH2 0x2B6 JUMP JUMPDEST SWAP3 SWAP2 POP POP JUMP JUMPDEST PUSH2 0x2E7 DUP2 PUSH2 0x228 JUMP JUMPDEST DUP3 MSTORE POP POP JUMP JUMPDEST PUSH0 PUSH1 0x20 DUP3 ADD SWAP1 POP PUSH2 0x300 PUSH0 DUP4 ADD DUP5 PUSH2 0x2DE JUMP JUMPDEST SWAP3 SWAP2 POP POP JUMP JUMPDEST PUSH0 DUP2 MLOAD SWAP1 POP SWAP2 SWAP1 POP JUMP JUMPDEST PUSH0 DUP2 SWAP1 POP SWAP3 SWAP2 POP POP JUMP JUMPDEST DUP3 DUP2 DUP4 MCOPY PUSH0 DUP4 DUP4 ADD MSTORE POP POP POP JUMP JUMPDEST PUSH0 PUSH2 0x332 DUP3 PUSH2 0x306 JUMP JUMPDEST PUSH2 0x33C DUP2 DUP6 PUSH2 0x310 JUMP JUMPDEST SWAP4 POP PUSH2 0x34C DUP2 DUP6 PUSH1 0x20 DUP7 ADD PUSH2 0x31A JUMP JUMPDEST DUP1 DUP5 ADD SWAP2 POP POP SWAP3 SWAP2 POP POP JUMP JUMPDEST PUSH0 PUSH2 0x363 DUP3 DUP5 PUSH2 0x328 JUMP JUMPDEST SWAP2 POP DUP2 SWAP1 POP SWAP3 SWAP2 POP POP JUMP JUMPDEST PUSH0 DUP3 DUP3 MSTORE PUSH1 0x20 DUP3 ADD SWAP1 POP SWAP3 SWAP2 POP POP JUMP JUMPDEST PUSH32 0x63616C6C206661696C6564000000000000000000000000000000000000000000 PUSH0 DUP3 ADD MSTORE POP JUMP JUMPDEST PUSH0 PUSH2 0x3B2 PUSH1 0xB DUP4 PUSH2 0x36E JUMP JUMPDEST SWAP2 POP PUSH2 0x3BD DUP3 PUSH2 0x37E JUMP JUMPDEST PUSH1 0x20 DUP3 ADD SWAP1 POP SWAP2 SWAP1 POP JUMP JUMPDEST PUSH0 PUSH1 0x20 DUP3 ADD SWAP1 POP DUP2 DUP2 SUB PUSH0 DUP4 ADD MSTORE PUSH2 0x3DF DUP2 PUSH2 0x3A6 JUMP JUMPDEST SWAP1 POP SWAP2 SWAP1 POP JUMP INVALID LOG2 PUSH5 0x6970667358 0x22 SLT KECCAK256 PUSH9 0x106DF5BC057AC73CEC 0xB5 0xD5 DUP15 0xB0 KECCAK256 PUSH2 0x238F PREVRANDAO PUSH29 0x975FCADDF36D889A059815D064736F6C634300081A0033000000000000 "
				},
				"gasEstimates": {
					"creation": {
						"codeDepositCost": "210400",
						"executionCost": "infinite",
						"totalCost": "infinite"
					},
					"external": {
						"calleeAddress()": "2505",
						"setCalleeX(uint256)": "infinite",
						"xx()": "2447"
					}
				},
				"methodIdentifiers": {
					"calleeAddress()": "643dfbf9",
					"setCalleeX(uint256)": "5f6cce24",
					"xx()": "ece57b04"
				}
			},
			"storageLayout": {
				"storage": [
					{
						"astId": 4,
						"contract": "contracts/CallContract/Caller.sol:Caller",
						"label": "calleeAddress",
						"offset": 0,
						"slot": "0",
						"type": "t_address"
					},
					{
						"astId": 6,
						"contract": "contracts/CallContract/Caller.sol:Caller",
						"label": "xx",
						"offset": 0,
						"slot": "1",
						"type": "t_uint256"
					}
				],
				"types": {
					"t_address": {
						"encoding": "inplace",
						"label": "address",
						"numberOfBytes": "20"
					},
					"t_uint256": {
						"encoding": "inplace",
						"label": "uint256",
						"numberOfBytes": "32"
					}
				}
			},
			"userdoc": {
				"kind": "user",
				"methods": {},
				"version": 1
			}
		}
	}
}